:400000000080002011000000A5100000A510000080B500AF024A034B1B68136001F074F8BC760040FA46004010B5054C237833B9044B13B10448AFF300800123237010BD40
:400040008081FF1F0000000030680000084B10B51BB108490848AFF300800848036803B910BD074B002BFBD0BDE81040184700BF000000008481FF1F30680000C880FF1F62
:400080000000000080B500AF034801F04DF900F03DFD00BF80BD00BF3868000080B500AF034801F041F900F079FD00BF80BD00BF4868000080B584B002AF02F0DDFA0346FE
:4000C000FB71012001F0E6F9FB791A465B495C4804F078FB28235B4A5949012000F018FAFB79013B0E2B66D801A252F823F000BF2D01000039010000450100005101000085
:40010000B7010000B7010000B7010000B70100005D0100006901000075010000810100008D0100009B010000A901000000F06EFA0246454B1A603EE000F076FA0246424B4E
:400140001A6038E000F014FB02463F4B1A6032E000F01CFB02463C4B1A602CE000F0BAFB0246394B1A6026E000F0C2FB0246364B1A6020E000F060FC0246334B1A601AE0CD
:4001800000F068FC0246304B1A6014E001F0D0FA03461A462C4B1A600DE003F097FC03461A46294B1A6006E000F00CFD03461A46254B1A6000BF02F09BFA02F0BFFA224B8B
:4001C0003B605A2002F048FA3B681B78184602F0BBF93B6801331B78184602F0B5F93B6802331B78184602F0AFF93B6803331B78184602F0A9F9002001F04CF93B681B78C7
:4002000019463B6801331B7818463B6802331B781A463B6803331B780193009203460A460A49074804F0CEFA5F23064A0449012000F06EF900BF0837BD4680BD58680000AE
:40024000CC81FF1F60680000C083FF1F6868000080B500AF01F030FA00BF80BD80B500AF03F0FAFB00BF80BD90B587B000AF0346FB7101F0D7FE01F0FBFE002307F10804A0
:400280000FCB84E80F00FB793B7207F108030521184601F02BFF012001F08EF800BF1C37BD4690BD90B58DB000AF0346FB714FF0FF33FB6007F10C03BB6201F0B3FE01F0C3
:4002C000D7FE002307F110040FCB84E80F00FB793B7407F110030521184601F007FF012001F06AF801F068FE03467B627B6A052B18D101F025FE034687F8233097F82330FC
:400300005A2B0FD10023FB6209E0FB6ABA6AD41801F016FE03462370FB6A0133FB62FB6A032BF2DDFB6818463437BD4690BD00BF80B58CB000AF62B601F0FCFC02F086F875
:4003400000F076FF01F0DCF903F0AAFB604802F0DDFE604802F03EFE5F4802F089FE5F4803F0BAFC5E4803F005FD5E4801F00EFC5D4802F029FB02F037FC01F015F95B4841
:4003800001F0B6FB5A4802F06DFB01F029FB02F031FD584803F0E6F8574803F095F802F053FF03F04DF8554803F008FB544803F0B7FA03F075F903F06FFA524802F058FCEE
:4003C00002F090FD504800F0AFFF504800F0ACFF41F2883000F076F941F2883000F024FA41F2883000F0D2FA41F2883000F080FB0120FFF739FF0120FFF754FFF8620220A0
:40040000FFF732FF0220FFF74DFFB862BB6A002BEED00320FFF728FF0320FFF743FF78620420FFF721FF0420FFF73CFF38623B6A002BEED00920FFF717FF0920FFF732FF58
:40044000F8610A20FFF710FF0A20FFF72BFFB861BB69002BEED00B20FFF706FF0B20FFF721FF78610C20FFF7FFFE0C20FFF71AFF38613B69002BEED00D20FFF7F5FE0D2081
:40048000FFF710FFF86001F065F90346FB720220FFF7EAFE0220FFF705FFB862BB6A002BEAD00E20FFF7E0FE0E20FFF7FBFE786003F01EFB0346FB700A20FFF7D5FE0A20C6
:4004C000FFF7F0FEB861BB69002BEAD090E700BFB5000000850000009D000000510200005D0200006105000099050000E1060000FD0600004508000061080000A9090000E1
:40050000C50900007D0500007C6800008468000080B586B002AFF860B9607A603B60FB68002B08D0BB6800933B687A6809490A4804F048F907E0BB6800933B687A680749AD
:40054000054804F03FF9044800F0EEFE00BF1037BD4680BDB0680000C883FF1FC468000080B400AF044B1B680133034A136000BFBD4680BC704700BF9C81FF1F80B400AFAC
:40058000044B1B68013B034A136000BFBD4680BC704700BFA081FF1F80B582B000AF174B1B68012B26D802F0F7FC03467B60134B1B68134A1268134941F8232002F0ECFC22
:4005C00003463B603A687B689A4208D90B4B1B680C4A52F82320013A0A4941F82320074B1B683A68D1B2084AD154044B1B680133024A136000BF0837BD4680BDBC85FF1F3C
:40060000A081FF1FE885FF1FCC85FF1F98B500AF044B1B681C0201F005F803462343184698BD00BF9C81FF1F80B584B000AF0023FB600023BB601F4B1B68022B10D11E4B13
:400640001B681B021D4A12781343FB601A4B5B681B021A4A52781343FA68D31AFB6023E0144B1B68012B1FD1134B1B681B02134A12781343FB6002F08FFC0346FB71104BA1
:400680001B68BB6002F088FC0346BB71BA79FB799A4202D9BB68013BBB60BB681A02BB791343FA68D31AFB60FB6818461037BD4680BD00BFBC85FF1FE885FF1FCC85FF1F06
:4006C000A081FF1F80B582B000AF78607B689BB2184602F0ABFA00BF0837BD4680BD00BF80B400AF044B1B680133034A136000BFBD4680BC704700BFA481FF1F80B582B0E4
:4007000000AF174B1B68012B25D802F045FC0346FB71134B1B68134A1268134941F8232002F03AFC0346BB71BA79FB799A4208D90B4B1B680C4A52F82320013A0A4941F800
:400740002320074B1B680949BA79CA54044B1B680133034A136000BF0837BD4680BD00BFDC85FF1FA081FF1FE085FF1FC885FF1F98B500AF044B1B681C0201F06FF90346C1
:400780002343184698BD00BFA481FF1F80B584B000AF0023FB600023BB601F4B1B68022B10D11E4B1B681B021D4A12781343FB601A4B5B681B021A4A52781343FA68D31A8C
:4007C000FB6023E0144B1B68012B1FD1134B1B681B02134A12781343FB6002F0DDFB0346FB71104B1B68BB6002F0D6FB0346BB71BA79FB799A4202D9BB68013BBB60BB685C
:400800001A02BB791343FA68D31AFB60FB6818461037BD4680BD00BFDC85FF1FE085FF1FC885FF1FA081FF1F80B582B000AF78607B689BB2184602F0FFFA00BF0837BD464D
:4008400080BD00BF80B400AF044B1B680133034A136000BFBD4680BC704700BFA881FF1F80B582B000AF174B1B68012B25D802F093FB0346FB71134B1B68134A12681349AB
:4008800041F8232002F088FB0346BB71BA79FB799A4208D90B4B1B680C4A52F82320013A0A4941F82320074B1B680949BA79CA54044B1B680133034A136000BF0837BD4669
:4008C00080BD00BFF885FF1FA081FF1FF085FF1FC485FF1F98B500AF044B1B681C0202F0F1FC03462343184698BD00BFA881FF1F80B584B000AF0023FB600023BB601F4BB7
:400900001B68022B10D11E4B1B681B021D4A12781343FB601A4B5B681B021A4A52781343FA68D31AFB6023E0144B1B68012B1FD1134B1B681B02134A12781343FB6002F07F
:400940002BFB0346FB71104B1B68BB6002F024FB0346BB71BA79FB799A4202D9BB68013BBB60BB681A02BB791343FA68D31AFB60FB6818461037BD4680BD00BFF885FF1F30
:40098000F085FF1FC485FF1FA081FF1F80B582B000AF78607B689BB2184602F073FD00BF0837BD4680BD00BF80B400AF044B1B680133034A136000BFBD4680BC704700BF06
:4009C000AC81FF1F80B582B000AF174B1B68012B25D802F0E1FA0346FB71134B1B68134A1268134941F8232002F0D6FA0346BB71BA79FB799A4208D90B4B1B680C4A52F862
:400A00002320013A0A4941F82320074B1B680949BA79CA54044B1B680133034A136000BF0837BD4680BD00BFD085FF1FA081FF1FD485FF1FC085FF1F98B500AF044B1B68D4
:400A40001C0202F06BFE03462343184698BD00BFAC81FF1F80B584B000AF0023FB600023BB601F4B1B68022B10D11E4B1B681B021D4A12781343FB601A4B5B681B021A4A6E
:400A800052781343FA68D31AFB6023E0144B1B68012B1FD1134B1B681B02134A12781343FB6002F079FA0346FB71104B1B68BB6002F072FA0346BB71BA79FB799A4202D991
:400AC000BB68013BBB60BB681A02BB791343FA68D31AFB60FB6818461037BD4680BD00BFD085FF1FD485FF1FC085FF1FA081FF1F80B582B000AF78607B689BB2184602F008
:400B0000EDFE00BF0837BD4680BD00BF80B500AF032000F0DDFC012000F04EFC174B00221A60164B1B68164A1360154B1B68154A1360144B1B68144A1360002000F062FD16
:400B4000002000F07BFF002002F0ACFB002002F0D5FD0E4B00221A600C4B1B680C4A13600B4B1B680B4A13600A4B1B680A4A1360002000F0ADFC00BF80BD00BFD085FF1F8F
:400B8000F885FF1FDC85FF1FBC85FF1FAC81FF1FA881FF1FA481FF1F9C81FF1F80B500AF022000F095FC012000F006FC062000F08FFC012000F000FC042000F089FC00BF0C
:400BC00080BD00BF80B582B000AF00F091FC034623F00F03FB71FB791B09FB71FB7918460837BD4680BD00BF80B582B000AF786039603A680021786803F06BF900BF0837F9
:400C0000BD4680BD80B584B000AFF860B9607A607A68B968F86803F051F900BF1037BD4680BD00BF80B483B000AF0346FB71FEE780B487B000AF7860396000233B6100234F
:400C40007B6127E07B699B007A6813441B68BB60BB68FB73BB6823F0FF03BB6014E03B695B003A6813441B781A46BB68134419463B695B003A6813445B780B703B69013381
:400C80003B61FB7B013BFB73FB7B002BE7D17B6901337B617B69272BD4D900BF1C37BD4680BC704780B582B000AF584B1B78BB70574B17221A80574B18221A70564B172214
:400CC0001A80564B18221A70554B4FF49C721A80544B18221A70544B02221A704FF0402308221A70514BF3221A70484B03221A704F4B84221A704F4B05221A704E4B7B605E
:400D000006E04FF4F07003F083F87B68013B7B607B68002B06D0474B1B78DBB203F02003002BEED0394ABB781370444B43F213321A80434B05221A70414B1B7843F2C823D3
:400D40007B6006E04FF4F07003F062F87B68013B7B607B68002B05D0394B1B78DBB25BB2002BEFDB374B03221A70374B374A1278D2B21A70364B08221A80364B41F2512207
:400D80001A800023FB7019237B6014E0FB785B00DAB2314B1B78DBB203F00103DBB21343DBB203F00303FB704FF4F07003F030F87B68013B7B607B68002B02D0FB78032B06
:400DC000E4D17B68002B02D10320FFF72BFF234B4FF480721A80214B07221A70204B00221A70204B48221A701C4B00221A701E4B02221A701D4A1D4B1B78DBB243F00703F2
:400E0000DBB2137000BF0837BD4680BD9846004080400040824000408440004086400040884000408A400040004300400A4300400943004008430040A08601001242004046
:400E40001042004000420040A14600400801004922420040204200402542004004400040064000400840004001400040A243004080B483B000AF0B4B1B78FB710A4AFB798D
:400E800003F00703DBB21370084AFB791B09DBB21370074B44221A7000BF0C37BD4680BC704700BFCF0100496E5800406F5800407658004080B586B000AF72B65A4A5A4B73
:400EC0001B78DBB243F00403DBB213700023FB7513E0FA7D13465B0013445B00534A13443B613B691A683B699B889BB219461046FFF77AFEFB7D0133FB75FB7D092BE8D9AF
:400F00000023FB751CE0FA7D13469B0013445B00474A1344FB60FB681B68BB60FB685B687B60FB681A7A5B7A1B0213437B807B881A467968B868FFF765FEFB7D0133FB75AD
:400F4000FB7D052BDFD93B494FF09040FFF770FE394B20221A70394B394A1A60394A394B1B78DBB243F00203DBB21370364A364B1B78DBB243F00203DBB21370334A334B76
:400F80001B78DBB243F04003DBB21370304A304B1B78DBB243F01003DBB2137008222D492D48FFF72FFE0A222C492D48FFF72AFE0A222C492C48FFF725FE08222B492C4874
:400FC000FFF720FE0A222B492B48FFF71BFE08222A492B48FFF716FE08222A492A48FFF711FE082229492A48FFF70CFE294A294B1B78DBB243F00803DBB21370264B002297
:401000001A70FFF74FFE244B80221A70234B01221A70FFF72DFF0E220C492148FFF7F2FD00BF1837BD4680BDE8460040D868000014690000A0000048126000405816014076
:40104000040400A40350014013500140A0430040C2430040F412004802510040FC120048C051004008130048F051004014130048125100401C1300482051004028130048FB
:401080003251004030130048425100403813004852510040224300400048004004000840B043004080B500AF02F0DCFE03461B680C2B00D1FEE7FEE780B584B000AF7860AF
:4010C0000F4B1A687B6813441A460E4BD31A802B09DC0B4B1B68FB60094B1A687B681344074A136007E002F0BDFE02460C2313604FF0FF33FB60FB6818461037BD4680BD0A
:40110000CC80FF1FA086FF1F80B586B000AF224B7B61224B3B61204B7B6135E03B691B68FB603B695B68BB603B699B683B6000237B600CE0FB681A68BB681A60BB6804332D
:40114000BB60FB680433FB607B6804337B607A683B689A42EED13B69DB683B6000237B6008E0BB6800221A60BB680433BB607B6804337B607A683B689A42F2D13B691033AE
:401180003B617B69013B7B617B69002BC6D102F06FFEFFF7CDF8FEE701000000D86A000080B582B000AF184B184A1A60184A184B1B6843F40073136000237B600FE07B6825
:4011C000032B04D8134A7B6852F8233000E0124B12497A6841F822307B6801337B607B682F2BECD90E4B1B78DAB20E4B1A700E4B0A4A1A60FFF75EFE0C4B00221A6000BF89
:401200000837BD4680BD00BF0CED00E00004FA0514ED00E000000000A51000000080FF1FBC760040C480FF1F08ED00E0C080FF1F80B500AF064B1B78002B04D100F00AF89F
:40124000034B01221A7000F025F800BF80BD00BFB081FF1F80B400AF094B72221A70094B20221A70084B06221A70084B47221A70074B00221A7000BFBD4680BC704700BF2A
:40128000896400408D6400402B6400403B6400408B64004080B582B000AF02F0D8FD0346FB71114A104B1B78DBB243F02003DBB213700E4A0D4B1B78DBB243F01003DBB282
:4012C00013700B4A0A4B1B78DBB243F01003DBB2137000F04BF8FB79184602F0BCFD00BF0837BD4680BD00BF996400409D6400409B64004080B483B000AF0346FB7100BF57
:40130000074B1B78DBB203F00403002BF8D1054AFB79137000BF0C37BD4680BC704700BF6B6400404865004080B584B000AF78600023FB810C4B1B78002B10D009E0FB8963
:401340007A6813441B781846FFF7D4FFFB890133FB81FB897A6813441B78002BEFD100BF1037BD4680BD00BFB081FF1F80B400AF094A094B1B78DBB243F00403DBB21370C3
:40138000064A064B1B78DBB243F00403DBB2137000BFBD4680BC7047A2430040B243004080B483B000AF0346FB7101BE00BF0C37BD4680BC704700BF80B582B000AF7860E4
:4013C00008E00C4B1B68184602F022FD7B68A3F500437B607B68B3F5004FF2D8064B1B687A6802FB03F3184602F012FD00BF0837BD4680BDDC80FF1FD480FF1F80B584B0E4
:4014000000AF03463960FB710F4B1B68FB60FB791F2B02D90020FFF7C3FFFB7903F01F0310339B00FA6813441B68BB60FB7903F01F0310339B00FA6813443A681A60BB68E9
:4014400018461037BD4680BD08ED00E080B582B000AF03460A46FB711346BB71BB79072B02D90020FFF79CFFFB791F2B02D90020FFF796FFFB7903F01F0303F1604303F5C4
:401480006443BA795201D2B21A7000BF0837BD4680BD00BF80B485B000AF0346FB710B4B1B78DBB223F00203FB730849FB795B00DBB203F00203DAB2FB7B1343DBB20B7026
:4014C00000BF1437BD4680BC704700BF2051004080B483B000AF0346FB71044AFB79137000BF0C37BD4680BC704700BF7564004080B400AF034B1B78DBB21846BD4680BCAE
:40150000704700BF6164004080B582B000AF1C4B1B78DBB223F00703FB71194AFB7943F00103DBB21370164B1B78DBB223F00303FB71134AFB79137000F0B0F8FE2000F0EC
:401540008DF8002000F05EF8002000F03FF800F04DF8012000F092F802F079FC0346BB71084A084B1B78DBB243F01003DBB21370BB79184602F06FFC00BF0837BD4680BD45
:40158000716400409364004080B400AF054A054B1B78DBB263F07F03DBB2137000BFBD4680BC70477164004080B500AF064B1B78002B04D1FFF7A8FF034B01221A70FFF738
:4015C000E3FF00BF80BD00BFB281FF1F80B483B000AF0346FB71044AFB79137000BF0C37BD4680BC704700BF8364004080B400AF034B1B78DBB21846BD4680BC704700BFAB
:401600006364004080B483B000AF0346FB71044AFB79137000BF0C37BD4680BC704700BF0364004080B400AF044B1B78044B1B78DBB21846BD4680BC704700BF0364004047
:401640004364004080B400AF034B1B78DBB21846BD4680BC704700BF4364004080B483B000AF0346FB71044AFB79137000BF0C37BD4680BC704700BF2364004080B483B043
:4016800000AF0346FB71044AFB79137000BF0C37BD4680BC704700BF3364004080B500AF01E0FFF7CFFFFFF7A1FF034603F04003002BF6D100BF80BD80B400AF00BFBD46C2
:4016C00080BC704780B582B000AF0F2000F050F800F040F802F0BBFB0346FB71074A074B1B78DBB243F01003DBB21370FB79184602F0B1FB00BF0837BD4680BD9E640040EC
:4017000080B500AF00F094F84FF4004000F0BEF8064B1B78002B04D1FFF7CEFF034B01221A70FFF7CFFF00BF80BD00BFB381FF1F80B582B000AF00F0B9F80346FB80FB88AF
:40174000A3F500439BB2BB80B7F9043018460837BD4680BD80B400AF044B1B78DBB203F00F03DBB21846BD4680BC70476E64004080B483B000AF0346FB71044AFB791370EB
:4017800000BF0C37BD4680BC704700BF8E64004080B582B000AF1C4B1B78DBB223F00703FB71194AFB791370174B1B78DBB223F00303FB71144AFB79137000F0B3F84FF486
:4017C000004000F08FF84FF4004000F05FF8002000F040F800F04EF84FF4004000F092F802F035FB0346BB71084A084B1B78DBB243F01003DBB21370BB79184602F02BFB91
:4018000000BF0837BD4680BD7F6400409064004080B400AF054A054B1B78DBB263F07F03DBB2137000BFBD4680BC70477F64004080B500AF064B1B78002B04D1FFF7A8FF4F
:40184000034B01221A70FFF7E3FF00BF80BD00BFB481FF1F80B483B000AF0346FB71044AFB79137000BF0C37BD4680BC704700BF8064004080B400AF034B1B78DBB21846ED
:40188000BD4680BC704700BF6064004080B483B000AF0346FB80044AFB88138000BF0C37BD4680BC704700BF1C68004080B400AF044B1B78044B1B889BB21846BD4680BC15
:4018C000704700BF0E6400409C68004080B400AF034B1B889BB21846BD4680BC704700BF9C68004080B483B000AF0346FB80044AFB88138000BF0C37BD4680BC704700BF0F
:401900005C68004080B483B000AF0346FB80044AFB88138000BF0C37BD4680BC704700BF7C68004080B500AF01E0FFF7CFFFFFF7A1FF034603F04003002BF6D100BF80BDFE
:4019400080B582B000AF1C4B1B78DBB223F00703FB71194AFB7943F00103DBB21370164B1B78DBB223F00303FB71134AFB79137000F0B0F8FE2000F08DF8002000F05EF838
:40198000002000F03FF800F04DF8012000F092F802F05DFA0346BB71084A084B1B78DBB243F01003DBB21370BB79184602F053FA00BF0837BD4680BD7664004096640040D4
:4019C00080B400AF054A054B1B78DBB263F07F03DBB2137000BFBD4680BC70477664004080B500AF064B1B78002B04D1FFF7A8FF034B01221A70FFF7E3FF00BF80BD00BF9E
:401A0000B581FF1F80B483B000AF0346FB71044AFB79137000BF0C37BD4680BC704700BF8664004080B400AF034B1B78DBB21846BD4680BC704700BF6664004080B483B08C
:401A400000AF0346FB71044AFB79137000BF0C37BD4680BC704700BF0664004080B400AF044B1B78044B1B78DBB21846BD4680BC704700BF066400404664004080B400AF9E
:401A8000034B1B78DBB21846BD4680BC704700BF4664004080B483B000AF0346FB71044AFB79137000BF0C37BD4680BC704700BF2664004080B483B000AF0346FB71044A11
:401AC000FB79137000BF0C37BD4680BC704700BF3664004080B500AF01E0FFF7CFFFFFF7A1FF034603F04003002BF6D100BF80BD80B582B000AF786000F03CF8786800F0F0
:401B000009F8072000F018F800F028F800BF0837BD4680BD80B485B000AF7860054B1B68FB60FB6868337A681A6000BF1437BD4680BC704708ED00E080B483B000AF034683
:401B4000FB71054AFB795B01DBB2137000BF0C37BD4680BC704700BF0AE400E080B400AF034B4FF480621A6000BFBD4680BC704700E100E080B400AF034B4FF480621A602F
:401B800000BFBD4680BC704780E100E080B582B000AF786000F03CF8786800F009F8072000F018F800F028F800BF0837BD4680BD80B485B000AF7860054B1B68FB60FB6856
:401BC00064337A681A6000BF1437BD4680BC704708ED00E080B483B000AF0346FB71054AFB795B01DBB2137000BF0C37BD4680BC704700BF09E400E080B400AF034B4FF42B
:401C000000721A6000BFBD4680BC704700E100E080B400AF034B4FF400721A6000BFBD4680BC704780E100E080B500AF1C4B0F221A701C4B02221A6007210120FFF706FCA0
:401C400019490120FFF7DAFB164B01221A6007210020FFF7FBFB15490020FFF7CFFB00F063FA134B00221A70124B00221A70124B00221A70114B00221A70114B00221A702D
:401C8000104B00221A7000F097F800F0B3F80E4B00221A700D4B20221A7000BF80BD00BF8465004080E100E0892100005D220000FC85FF1F4886FF1F4686FF1F4486FF1F2F
:401CC0004586FF1F4786FF1F8B6500408A65004080B582B000AF02F0BAF80346FB71124A114B1B78DBB243F02003DBB213700F4A0E4B1B78DBB243F01003DBB213700C4A86
:401D00000B4B1B78DBB243F01003DBB21370FB79184602F0A0F800F01FF800F029F800BF0837BD4680BD00BF946500409B6500409A65004080B500AF064B1B78002B04D1E6
:401D4000FFF772FF034B01221A70FFF7C1FF00BF80BD00BFB681FF1F80B400AF034B02221A6000BFBD4680BC704700BF00E100E080B400AF034B01221A6000BFBD4680BC6B
:401D8000704700BF00E100E080B400AF034B02221A6000BFBD4680BC704700BF80E100E080B400AF034B01221A6000BFBD4680BC704700BF80E100E080B582B000AFFFF7D9
:401DC000E3FF0A4B1B78DAB2094B1B78DBB203F00903DBB21343FB71054B00221A70FFF7BBFFFB7918460837BD4680BD6B6500402086FF1F80B582B000AFFFF7D1FF0A4BC9
:401E00001B78DAB2094B1B78DBB203F04003DBB21343FB71054B00221A70FFF7A9FFFB7918460837BD4680BD6A6500404986FF1F80B584B000AF0346FB71394B1B78FB7351
:401E4000FB7B002B02D11F23FB7302E0FB7B013BFB73344B1B78DBB2FA7B9A42EDD0FFF793FF314B1B78DAB2304B1B78DBB203F00903DBB21343BB732C4ABB7B1370284B1F
:401E80001B78DAB2274B1B78DBB29A420AD1274B1B78DBB203F00403002B03D0244AFB79137037E01F4B1B78DBB20133DAB21D4B1A701C4B1B78DBB21F2B02D9194B002246
:401EC0001A70184B1B78DAB2154B1B78DBB29A4211D1134B1B78DBB20133DAB2104B1A700F4B1B78DBB21F2B02D90D4B00221A70104B01221A700B4B1B78DBB219460E4A9D
:401F0000FB7953540D4A0D4B1B78DBB243F00403DBB21370FFF720FF00BF1037BD4680BD4586FF1F4786FF1F6B6500402086FF1F446500404486FF1F0086FF1F8B650040C5
:401F400080B582B000AFFFF72BFF174B1B78DAB2164B1B78DBB29A4217D0154B1B78DBB2002B0FD1104B1B78DBB20133DAB20E4B1A700D4B1B78DBB21F2B06D90A4B0022A5
:401F80001A7002E00A4B00221A70074B1B78DBB21A46084B9B5CFB71FFF7EAFEFB7918460837BD4680BD00BF4886FF1F4686FF1FFC85FF1F2486FF1F80B582B000AFFFF7F5
:401FC000EFFE164B1B78DAB2154B1B78DBB29A4202D10023FB711AE0104B1B78DAB2104B1B78DBB29A4208D20D4B1B78DAB20B4B1B78DBB2D31AFB7109E0094B1B78DAB26F
:40200000064B1B78DBB2D31ADBB22033FB71FFF7AFFEFB7918460837BD4680BD4886FF1F4686FF1F80B500AF01E00C4B1B780C4B1B78DBB203F02003002BF6D1FFF7B0FE5A
:40204000084B00221A70084B00221A70074B00221A70FFF78DFE00BF80BD00BF546500406A650040FC85FF1F4886FF1F4686FF1F80B582B000AF01F0EAFE0346FB71164AA7
:40208000154B1B78DBB243F00103DBB21370124A114B1B78DBB223F00103DBB21370FB79184601F0D8FEFFF76FFE0C4B00221A700B4B00221A700B4B00221A700A4A0A4BAE
:4020C0001B78DBB223F00403DBB21370FFF744FE00BF0837BD4680BD946500404486FF1F4586FF1F4786FF1F8B65004080B584B000AF78600B46FB700023FB730CE0FB7B5C
:402100007A6813441B781846FFF792FEFB7B0133FB73FB78013BFB70FB78002BEFD100BF1037BD4680BD00BF80B582B000AF01E0124B1B78124B1B78DBB203F02003002BB5
:40214000F6D101F084FE0346FB710E4A0D4B1B78DBB243F00103DBB213700A4A094B1B78DBB223F00103DBB21370FB79184601F072FE00BF0837BD4680BD00BF5465004041
:402180006A6500409465004080B483B000AF35E02A4B1B78DAB22A4B1B78DBB203F00903DBB21343FB71264AFB791370244B1B78DBB203F00403002B29D0224B1B78DBB294
:4021C000002B0FD1204B1B78DBB20133DAB21E4B1A701D4B1B78DBB21F2B06D91A4B00221A7002E0174B00221A70184B164A1278D2B21146164A525CD2B21A70124B1B78B0
:40220000DAB2144B1B78DBB29A42C1D100E000BF0D4B1B78DAB20F4B1B78DBB29A4207D10D4A0D4B1B78DBB223F00403DBB2137000BF0C37BD4680BC704700BF6B65004021
:402240002086FF1F4486FF1F4586FF1F446500400086FF1F4786FF1F8B65004080B483B000AF2E4B1B78DAB22D4B1B78DBB203F04003DBB21343FB71294AFB79137040E0CC
:40228000284B1B78BB71284B1B78DBB20133DAB2254B1A70244B1B78DBB21F2B02D9224B00221A70204B1B78DAB2204B1B78DBB29A4211D11D4B1B78DBB20133DAB21B4B51
:4022C0001A701A4B1B78DBB21F2B02D9174B00221A70174B01221A70134B1B78DBB21946144ABB7953540D4B1B78DAB20C4B1B78DBB203F04003DBB21343FB71084AFB793E
:402300001370074B1B78DBB203F02003002BB7D100BF0C37BD4680BC704700BF6A6500404986FF1F546500404686FF1F4886FF1FFC85FF1F2486FF1F80B500AF1C4B072282
:402340001A701C4B08221A601B490320FFF756F807210320FFF77AF8164B04221A6017490220FFF74BF807210220FFF76FF800F023FA134B00221A70124B00221A70124B6A
:4023800000221A70114B00221A70114B00221A70104B00221A7000F09BF800F0B7F80E4B00221A700D4B08221A7000BF80BD00BF8665004080E100E019280000ED280000AA
:4023C0004D86FF1F4C86FF1F4F86FF1F4E86FF1F5086FF1F5286FF1F886400408464004080B582B000AF01F032FD0346FB71134A124B1B78DBB243F02003DBB21370104A54
:402400000F4B1B78DBB243F01003DBB213700D4A0C4B1B78DBB243F01003DBB21370FB79184601F018FD084B08221A60064B04221A6000BF0837BD4680BD00BF96650040B0
:40244000986400409464004000E100E080B500AF064B1B78002B04D1FFF76EFF034B01221A70FFF7BDFF00BF80BD00BFB781FF1F80B400AF034B08221A6000BFBD4680BC6B
:40248000704700BF00E100E080B400AF034B04221A6000BFBD4680BC704700BF00E100E080B400AF034B08221A6000BFBD4680BC704700BF80E100E080B400AF034B0422FE
:4024C0001A6000BFBD4680BC704700BF80E100E080B582B000AFFFF7E3FF0A4B1B78DAB2094B1B78DBB203F06103DBB21343FB71054B00221A70FFF7BBFFFB791846083774
:40250000BD4680BD686400405186FF1F80B582B000AFFFF7D1FF0A4B1B78DAB2094B1B78DBB203F06103DBB21343FB71054B00221A70FFF7A9FFFB7918460837BD4680BD05
:40254000646400409486FF1F80B584B000AF0346FB71394B1B78FB73FB7B002B02D11F23FB7302E0FB7B013BFB73344B1B78DBB2FA7B9A42EDD0FFF793FF314B1B78DAB2D3
:40258000304B1B78DBB203F06103DBB21343BB732C4ABB7B1370284B1B78DAB2274B1B78DBB29A420AD1274B1B78DBB203F00203002B03D0244AFB79137037E01F4B1B780D
:4025C000DBB20133DAB21D4B1A701C4B1B78DBB21F2B02D9194B00221A70184B1B78DAB2154B1B78DBB29A4211D1134B1B78DBB20133DAB2104B1A700F4B1B78DBB21F2B39
:4026000002D90D4B00221A70104B01221A700B4B1B78DBB219460E4AFB7953540D4A0D4B1B78DBB243F00203DBB21370FFF720FF00BF1037BD4680BD5086FF1F5286FF1F0F
:40264000686400405186FF1F476400404E86FF1F7486FF1F8864004080B483B000AF0346FB71044AFB79137000BF0C37BD4680BC704700BF0764004080B582B000AFFFF7BA
:402680001BFF174B1B78DAB2164B1B78DBB29A4217D0154B1B78DBB2002B0FD1104B1B78DBB20133DAB20E4B1A700D4B1B78DBB21F2B06D90A4B00221A7002E00A4B002297
:4026C0001A70074B1B78DBB21A46084B9B5CFB71FFF7DAFEFB7918460837BD4680BD00BF4C86FF1F4F86FF1F4D86FF1F5486FF1F80B500AF01E00C4B1B780C4B1B78DBB2F8
:4027000003F00803002BF6D1FFF7D6FE084B00221A70084B00221A70074B00221A70FFF7B3FE00BF80BD00BF57640040646400404C86FF1F4F86FF1F4D86FF1F80B582B043
:4027400000AF01F084FB0346FB71164A154B1B78DBB243F00303DBB21370124A114B1B78DBB223F00303DBB21370FB79184601F072FBFFF795FE0C4B00221A700B4B002227
:402780001A700B4B00221A700A4A0A4B1B78DBB223F00203DBB21370FFF76AFE00BF0837BD4680BD976400405086FF1F5286FF1F4E86FF1F8864004080B582B000AF01E0C6
:4027C000124B1B78124B1B78DBB203F00803002BF6D101F03CFB0346FB710E4A0D4B1B78DBB243F00303DBB213700A4A094B1B78DBB223F00303DBB21370FB79184601F0D2
:402800002AFB00BF0837BD4680BD00BF57640040646400409764004080B483B000AF35E02A4B1B78DAB22A4B1B78DBB203F06103DBB21343FB71264AFB791370244B1B78D5
:40284000DBB203F00203002B29D0224B1B78DBB2002B0FD1204B1B78DBB20133DAB21E4B1A701D4B1B78DBB21F2B06D91A4B00221A7002E0174B00221A70184B164A1278DA
:40288000D2B21146164A525CD2B21A70124B1B78DAB2144B1B78DBB29A42C1D100E000BF0D4B1B78DAB20F4B1B78DBB29A4207D10D4A0D4B1B78DBB223F00203DBB213707D
:4028C00000BF0C37BD4680BC704700BF686400405186FF1F4E86FF1F5086FF1F476400407486FF1F5286FF1F8864004080B483B000AF2E4B1B78DAB22D4B1B78DBB203F0DC
:402900006103DBB21343FB71294AFB79137040E0284B1B78BB71284B1B78DBB20133DAB2254B1A70244B1B78DBB21F2B02D9224B00221A70204B1B78DAB2204B1B78DBB2F9
:402940009A4211D11D4B1B78DBB20133DAB21B4B1A701A4B1B78DBB21F2B02D9174B00221A70174B01221A70134B1B78DBB21946144ABB7953540D4B1B78DAB20C4B1B7823
:40298000DBB203F06103DBB21343FB71084AFB791370074B1B78DBB203F00803002BB7D100BF0C37BD4680BC704700BF646400409486FF1F576400404F86FF1F4C86FF1FA3
:4029C0004D86FF1F5486FF1F80B582B000AF786000F03CF8786800F009F8072000F018F800F028F800BF0837BD4680BD80B485B000AF7860054B1B68FB60FB6854337A68AC
:402A00001A6000BF1437BD4680BC704708ED00E080B483B000AF0346FB71054AFB795B01DBB2137000BF0C37BD4680BC704700BF05E400E080B400AF034B20221A6000BF21
:402A4000BD4680BC704700BF00E100E080B400AF034B20221A6000BFBD4680BC704700BF80E100E080B582B000AF786000F03CF8786800F009F8072000F018F800F028F824
:402A800000BF0837BD4680BD80B485B000AF7860054B1B68FB60FB6858337A681A6000BF1437BD4680BC704708ED00E080B483B000AF0346FB71054AFB795B01DBB21370A1
:402AC00000BF0C37BD4680BC704700BF06E400E080B400AF034B40221A6000BFBD4680BC704700BF00E100E080B400AF034B40221A6000BFBD4680BC704700BF80E100E051
:402B000080B500AF224A224B1B78DBB203F00103DBB213701F4A1F4B1B78DBB223F00303DBB213701C4A1C4B1B78DBB223F03003DBB21370184A184B1B78DBB243F0300307
:402B4000DBB21370144A144B1B78DBB223F00F03DBB21370104A104B1B78DBB243F00F03DBB213700D4A0D4B1B78DBB243F00103DBB213704FF6FF7000F058F84FF6FF704B
:402B800000F066F8002000F041F800BF80BD00BF004F0040024F00400B4F0040014F004080B400AF0D4A0D4B1B78DBB243F00103DBB213700A4A0A4B1B78DBB243F0010380
:402BC000DBB21370074A074B1B78DBB243F00103DBB2137000BFBD4680BC7047A3430040B3430040004F004080B500AF064B1B78002B04D1FFF784FF034B01221A70FFF7E9
:402C0000CFFF00BF80BD00BFB881FF1F80B483B000AF0346FB71044AFB79137000BF0C37BD4680BC704700BF034F004080B485B000AF0346FB80FB88FB81044AFB8913801B
:402C400000BF1437BD4680BC704700BF044F004080B483B000AF0346FB80044AFB88138000BF0C37BD4680BC704700BF064F004080B582B000AF786000F03CF8786800F096
:402C800009F8072000F018F800F028F800BF0837BD4680BD80B485B000AF7860054B1B68FB60FB6884337A681A6000BF1437BD4680BC704708ED00E080B483B000AF0346D6
:402CC000FB71054AFB795B01DBB2137000BF0C37BD4680BC704700BF11E400E080B400AF034B4FF400321A6000BFBD4680BC704700E100E080B400AF034B4FF400321A60F7
:402D000000BFBD4680BC704780E100E080B500AF224A224B1B78DBB203F00103DBB213701F4A1F4B1B78DBB223F00303DBB213701C4A1C4B1B78DBB223F03003DBB213705A
:402D4000184A184B1B78DBB243F03003DBB21370144A144B1B78DBB223F00F03DBB21370104A104B1B78DBB243F00F03DBB213700D4A0D4B1B78DBB243F00103DBB21370A6
:402D80004FF6FF7000F058F84FF6FF7000F066F8002000F041F800BF80BD00BF0C4F00400E4F0040174F00400D4F004080B400AF0D4A0D4B1B78DBB243F00203DBB21370A5
:402DC0000A4A0A4B1B78DBB243F00203DBB21370074A074B1B78DBB243F00103DBB2137000BFBD4680BC7047A3430040B34300400C4F004080B500AF064B1B78002B04D144
:402E0000FFF784FF034B01221A70FFF7CFFF00BF80BD00BFB981FF1F80B483B000AF0346FB71044AFB79137000BF0C37BD4680BC704700BF0F4F004080B485B000AF034681
:402E4000FB80FB88FB81044AFB89138000BF1437BD4680BC704700BF104F004080B483B000AF0346FB80044AFB88138000BF0C37BD4680BC704700BF124F004080B582B018
:402E800000AFFF2000F05CF8FF2000F075F800F0DEFF0346FB710A4A094B1B78DBB243F01003DBB21370FB79184600F0D4FF00F083F8002000F028F800BF0837BD4680BD76
:402EC0009F64004080B400AF054A054B1B78DBB263F07F03DBB2137000BFBD4680BC70477C64004080B500AF064B1B78002B04D1FFF7C4FF034B01221A70FFF7E3FF00BF20
:402F000080BD00BFBA81FF1F80B483B000AF0346FB71044AFB79137000BF0C37BD4680BC704700BF8F64004080B400AF034B1B78DBB21846BD4680BC704700BF6F640040CB
:402F400080B483B000AF0346FB71044AFB79137000BF0C37BD4680BC704700BF2C64004080B400AF034B1B78DBB21846BD4680BC704700BF4C64004080B483B000AF034607
:402F8000FB71044AFB79137000BF0C37BD4680BC704700BF0C64004080B400AF044B1B78044B1B78DBB21846BD4680BC704700BF0C6400404C64004080B500AF01E0FFF757
:402FC000CFFFFFF7B1FF034603F00803002BF6D100BF80BD80B582B000AF786000F03CF8786800F009F8072000F018F800F028F800BF0837BD4680BD80B485B000AF7860E0
:40300000054B1B68FB60FB687C337A681A6000BF1437BD4680BC704708ED00E080B483B000AF0346FB71054AFB795B01DBB2137000BF0C37BD4680BC704700BF0FE400E09B
:4030400080B400AF034B4FF400421A6000BFBD4680BC704700E100E080B400AF034B4FF400421A6000BFBD4680BC704780E100E080B582B000AF786000F03CF8786800F0A2
:4030800009F8072000F018F800F028F800BF0837BD4680BD80B485B000AF7860054B1B68FB60FB6880337A681A6000BF1437BD4680BC704708ED00E080B483B000AF0346D6
:4030C000FB71054AFB795B01DBB2137000BF0C37BD4680BC704700BF10E400E080B400AF034B4FF480321A6000BFBD4680BC704700E100E080B400AF034B4FF480321A60F4
:4031000000BFBD4680BC704780E100E080B582B000AF786000F03CF8786800F009F8072000F018F800F028F800BF0837BD4680BD80B485B000AF7860054B1B68FB60FB68C0
:4031400050337A681A6000BF1437BD4680BC704708ED00E080B483B000AF0346FB71054AFB795B01DBB2137000BF0C37BD4680BC704700BF04E400E080B400AF034B1022BF
:403180001A6000BFBD4680BC704700BF00E100E080B400AF034B10221A6000BFBD4680BC704700BF80E100E080B582B000AF1C4B1B78DBB223F00703FB71194AFB7943F09E
:4031C0000103DBB21370164B1B78DBB223F00303FB71134AFB79137000F0B0F8FE2000F08DF8002000F05EF8002000F03FF800F04DF8012000F092F800F029FE0346BB712D
:40320000084A084B1B78DBB243F01003DBB21370BB79184600F01FFE00BF0837BD4680BD726400409564004080B400AF054A054B1B78DBB263F07F03DBB2137000BFBD46FE
:4032400080BC70477264004080B500AF064B1B78002B04D1FFF7A8FF034B01221A70FFF7E3FF00BF80BD00BFBB81FF1F80B483B000AF0346FB71044AFB79137000BF0C37E6
:40328000BD4680BC704700BF8564004080B400AF034B1B78DBB21846BD4680BC704700BF6564004080B483B000AF0346FB71044AFB79137000BF0C37BD4680BC704700BFFC
:4032C0000564004080B400AF044B1B78044B1B78DBB21846BD4680BC704700BF056400404564004080B400AF034B1B78DBB21846BD4680BC704700BF4564004080B483B098
:4033000000AF0346FB71044AFB79137000BF0C37BD4680BC704700BF2564004080B483B000AF0346FB71044AFB79137000BF0C37BD4680BC704700BF3564004080B500AFE0
:4033400001E0FFF7CFFFFFF7A1FF034603F04003002BF6D100BF80BD80B500AF224A224B1B78DBB203F00103DBB213701F4A1F4B1B78DBB223F00303DBB213701C4A1C4BD8
:403380001B78DBB223F03003DBB21370184A184B1B78DBB243F03003DBB21370144A144B1B78DBB223F00F03DBB21370104A104B1B78DBB243F00F03DBB213700D4A0D4B51
:4033C0001B78DBB243F00103DBB213704FF6FF7000F058F84FF6FF7000F066F8002000F041F800BF80BD00BF184F00401A4F0040234F0040194F004080B400AF0D4A0D4B30
:403400001B78DBB243F00403DBB213700A4A0A4B1B78DBB243F00403DBB21370074A074B1B78DBB243F00103DBB2137000BFBD4680BC7047A3430040B3430040184F00404D
:4034400080B500AF064B1B78002B04D1FFF784FF034B01221A70FFF7CFFF00BF80BD00BFBC81FF1F80B483B000AF0346FB71044AFB79137000BF0C37BD4680BC704700BF6F
:403480001B4F004080B485B000AF0346FB80FB88FB81044AFB89138000BF1437BD4680BC704700BF1C4F004080B483B000AF0346FB80044AFB88138000BF0C37BD4680BC39
:4034C000704700BF1E4F004080B582B000AF786000F03CF8786800F009F8072000F018F800F028F800BF0837BD4680BD80B485B000AF7860054B1B68FB60FB685C337A685F
:403500001A6000BF1437BD4680BC704708ED00E080B483B000AF0346FB71054AFB795B01DBB2137000BF0C37BD4680BC704700BF07E400E080B400AF034B80221A6000BFB4
:40354000BD4680BC704700BF00E100E080B400AF034B80221A6000BFBD4680BC704700BF80E100E080B582B000AF786000F03CF8786800F009F8072000F018F800F028F8B9
:4035800000BF0837BD4680BD80B485B000AF7860054B1B68FB60FB686C337A681A6000BF1437BD4680BC704708ED00E080B483B000AF0346FB71054AFB795B01DBB2137082
:4035C00000BF0C37BD4680BC704700BF0BE400E080B400AF034B4FF400621A6000BFBD4680BC704700E100E080B400AF034B4FF400621A6000BFBD4680BC704780E100E039
:4036000080B582B000AF1C4B1B78DBB223F00703FB71194AFB7943F00103DBB21370164B1B78DBB223F00303FB71134AFB79137000F0B0F8FE2000F08DF8002000F05EF85B
:40364000002000F03FF800F04DF8012000F092F800F0FDFB0346BB71084A084B1B78DBB243F01003DBB21370BB79184600F0F3FB00BF0837BD4680BD7764004097640040B7
:4036800080B400AF054A054B1B78DBB263F07F03DBB2137000BFBD4680BC70477764004080B500AF064B1B78002B04D1FFF7A8FF034B01221A70FFF7E3FF00BF80BD00BFC0
:4036C000BD81FF1F80B483B000AF0346FB71044AFB79137000BF0C37BD4680BC704700BF8764004080B400AF034B1B78DBB21846BD4680BC704700BF6764004080B483B0A6
:4037000000AF0346FB71044AFB79137000BF0C37BD4680BC704700BF0765004080B400AF044B1B78044B1B78DBB21846BD4680BC704700BF076500404765004080B400AFBB
:40374000034B1B78DBB21846BD4680BC704700BF4765004080B483B000AF0346FB71044AFB79137000BF0C37BD4680BC704700BF2765004080B483B000AF0346FB71044A30
:40378000FB79137000BF0C37BD4680BC704700BF3765004080B500AF01E0FFF7CFFFFFF7A1FF034603F04003002BF6D100BF80BD80B500AF224A224B1B78DBB203F001031F
:4037C000DBB213701F4A1F4B1B78DBB223F00303DBB213701C4A1C4B1B78DBB223F03003DBB21370184A184B1B78DBB243F03003DBB21370144A144B1B78DBB223F00F03FD
:40380000DBB21370104A104B1B78DBB243F00F03DBB213700D4A0D4B1B78DBB243F00103DBB213704FF6FF7000F058F84FF6FF7000F066F8002000F041F800BF80BD00BF3E
:40384000244F0040264F00402F4F0040254F004080B400AF0D4A0D4B1B78DBB243F00803DBB213700A4A0A4B1B78DBB243F00803DBB21370074A074B1B78DBB243F001035D
:40388000DBB2137000BFBD4680BC7047A3430040B3430040244F004080B500AF064B1B78002B04D1FFF784FF034B01221A70FFF7CFFF00BF80BD00BFBE81FF1F80B483B0B5
:4038C00000AF0346FB71044AFB79137000BF0C37BD4680BC704700BF274F004080B485B000AF0346FB80FB88FB81044AFB89138000BF1437BD4680BC704700BF284F0040FC
:4039000080B483B000AF0346FB80044AFB88138000BF0C37BD4680BC704700BF2A4F004080B582B000AF786000F03CF8786800F009F8072000F018F800F028F800BF0837C1
:40394000BD4680BD80B485B000AF7860054B1B68FB60FB6860337A681A6000BF1437BD4680BC704708ED00E080B483B000AF0346FB71054AFB795B01DBB2137000BF0C37C6
:40398000BD4680BC704700BF08E400E080B400AF034B4FF480721A6000BFBD4680BC704700E100E080B400AF034B4FF480721A6000BFBD4680BC704780E100E080B582B0F3
:4039C00000AF786000F03CF8786800F009F8072000F018F800F028F800BF0837BD4680BD80B485B000AF7860054B1B68FB60FB6870337A681A6000BF1437BD4680BC704756
:403A000008ED00E080B483B000AF0346FB71054AFB795B01DBB2137000BF0C37BD4680BC704700BF0CE400E080B400AF034B4FF480521A6000BFBD4680BC704700E100E0FA
:403A400080B400AF034B4FF480521A6000BFBD4680BC704780E100E080B400AF00BFBD4680BC704780B582B000AF0F2000F04EF800F03EF800F0EBF90346FB71074A074B2B
:403A80001B78DBB243F01003DBB21370FB79184600F0E1F900BF0837BD4680BD9C64004080B500AF00F090F8802000F0BBF8064B1B78002B04D1FFF7CFFF034B01221A7034
:403AC000FFF7D0FF00BF80BDBF81FF1F80B582B000AF00F0B7F80346FB71FB79803BDBB2BB7197F9063018460837BD4680BD00BF80B400AF044B1B78DBB203F00F03DBB20F
:403B00001846BD4680BC70476C64004080B483B000AF0346FB71044AFB79137000BF0C37BD4680BC704700BF8C64004080B582B000AF1B4B1B78DBB223F00703FB71184AA3
:403B4000FB791370164B1B78DBB223F00303FB71134AFB79137000F0B1F8802000F08EF8802000F05FF8002000F040F800F04EF8802000F093F800F06AF90346BB71094AAA
:403B8000084B1B78DBB243F01003DBB21370BB79184600F060F900BF0837BD4680BD00BF7A6400409A64004080B400AF054A054B1B78DBB263F07F03DBB2137000BFBD46BF
:403BC00080BC70477A64004080B500AF064B1B78002B04D1FFF7AAFF034B01221A70FFF7E3FF00BF80BD00BFC081FF1F80B483B000AF0346FB71044AFB79137000BF0C374E
:403C0000BD4680BC704700BF8A64004080B400AF034B1B78DBB21846BD4680BC704700BF6A64004080B483B000AF0346FB71044AFB79137000BF0C37BD4680BC704700BF68
:403C40000964004080B400AF044B1B78044B1B78DBB21846BD4680BC704700BF096400404964004080B400AF034B1B78DBB21846BD4680BC704700BF4964004080B483B0FE
:403C800000AF0346FB71044AFB79137000BF0C37BD4680BC704700BF2964004080B483B000AF0346FB71044AFB79137000BF0C37BD4680BC704700BF3964004080B500AF4F
:403CC00001E0FFF7CFFFFFF7A1FF034603F04003002BF6D100BF80BD80B582B000AF786000F03CF8786800F009F8072000F018F800F028F800BF0837BD4680BD80B485B05B
:403D000000AF7860054B1B68FB60FB6874337A681A6000BF1437BD4680BC704708ED00E080B483B000AF0346FB71054AFB795B01DBB2137000BF0C37BD4680BC704700BFE2
:403D40000DE400E080B400AF034B4FF400521A6000BFBD4680BC704700E100E080B400AF034B4FF400521A6000BFBD4680BC704780E100E080B582B000AF786000F03CF874
:403D8000786800F009F8072000F018F800F028F800BF0837BD4680BD80B485B000AF7860054B1B68FB60FB6878337A681A6000BF1437BD4680BC704708ED00E080B483B0F9
:403DC00000AF0346FB71054AFB795B01DBB2137000BF0C37BD4680BC704700BF0EE400E080B400AF034B4FF480421A6000BFBD4680BC704700E100E080B400AF034B4FF40D
:403E000080421A6000BFBD4680BC704780E100E0142816D902B4012114381049097811F0C001890904B40E4A515C04BC00BF00BF00BF8841FDD500BF00BF02BC704700BFCC
:403E400000BF70F10400FCD570470B050709EFF3108072B6704780F310887047004800404A3E0000014B1868704700BF4081FF1F0E4B70B51E460E4C0025E41AA410A54238
:403E800004D056F8253098470135F8E702F012FE084B094C1E46E41AA4100025A54204D056F8253098470135F8E770BDC06A0000C06A0000C06A0000C86A000010B5431E5D
:403EC0000A44914204D011F8014B03F8014FF8E710BD03460244934202D003F8011BFAE770472DE9F04788B0149F002B1E461299B8BF03F1004327F02007B6BF1E46002342
:403F00002D23462F1446109DDDF84CA00B7003D0452F03D1013501E0032300E0022307AA049206AA03928DE828042246334600F003FD472F804602D1119BDB0728D5462F0F
:403F400008EB050911D198F80030302B0AD1002200232046314602F0FBFB18B9C5F10105CAF80050DAF800309944002200232046314602F0EDFB08B9302202E0CDF81C907E
:403F800006E0079B994503D9591C07911A70F8E74046079B159AC8EB0303136008B0BDE8F087034673B50029B8BF494203F8022BB4BF2D222B22092942701ADD0DF10702BD
:403FC00016460A2591FBF5F405FB1411092C01F1300102F8011D2146F4DC3031541E02F8011CB4421A460AD214F8012B03F8012BF7E71A463024214402F8024B5970101A49
:4040000002B070BD2DE9F04F91B00C46DDF8688016461F46054601F027FA03681846099300F0F4FB00230E93D8F800300A90073323F0070303F1080294F81890D4F800B037
:40404000C8F80020D3E90023C4E91223D4F84CA0D4F848802AF000430B934FF0FF32A74B40460B9902F0A6FBA0B94FF0FF32A34B40460B9902F080FB60B900220023404607
:40408000514602F06FFB10B12D2384F843309C4B9C4A0AE0424653464046514602F08AFB002800F09281984B984AB9F1470F8CBF90469846032323612BF0040323604FF024
:4040C000000A3DE0B9F1670F00F08A81B9F1470F00F0868123600193636800210DF13302059002920093424653460691CDF81090CDF80CE02846FFF7F4FE09F0DF03472B24
:40410000804600F08481B9F1650F0D9900F28D8101394A4604F150000D91FFF742FF0E9A82468318012A236100F37C812268D10700F178819DF8333013B12D2384F843302B
:40414000009733460FAA2146284600F09FF9013002D14FF0FF3096E123685A0501D4236965E0B9F1650F40F2D580D4E912010022002302F0EDFA78B30123654A314628462A
:40418000B8470130E5D00E9B0D9A9A420BDB2368D80708D423689B0740F111814FF0000804F1190906E10A9B099A31462846B8470130CED04FF0000804F11A090E9B013B4E
:4041C0009845E7DA01234A4631462846B8470130BFD008F10108F1E70D9B002B29DC01234B4A31462846B8470130B2D00D9B23B90E9B13B92368D907CCD50A9B099A314603
:404200002846B8470130A4D04FF0000904F11A0A0D9B5B42994509DA0123524631462846B847013095D009F10109F1E70E9B4246A7E00E9AA36D9A42A8BF1A46002A9146DF
:4042400006DC4FF0000A29EAE97904F11A0B11E01346314642462846B8470130F1D178E701235A4631462846B84701303FF471AF0AF1010AA36DC9EB03029245F0DB08EBEC
:4042800003090D9A0E9B9A420FDB2368DA070CD40E9B0D9A9844C9EB08089B1A9845A8BF9846B8F1000F08DC0FE00A9B099A31462846B8470130EBD14BE743464A46314663
:4042C0002846B84701303FF444AF4FF0000928EAE87804F11A0A09E00123524631462846B84701303FF435AF09F101090D9A0E9B9B1AC8EB03039945EEDB4BE7FFFFEF7F4F
:4043000052690000566900005A6900005E690000626900000E9A012A01DCDB0738D50123424631462846B84701303FF412AF0A9B099A31462846B84701303FF40AAFD4E954
:4043400012010022002302F003FA20B14FF0000804F11A090EE00E9B08F10102013B19E001234A4631462846B84701303FF4F1AE08F101080E9B013B9845F1DB534604F145
:40438000500231462846B84701307FF403AFE0E64246012331462846B8470130EED1D8E601234A4631462846B84701303FF4D1AE08F10108E3680F9A9B1A9845F0DBE06857
:4043C0000F9B9842B8BF18465DE062680EA8531C0DF1340E4BF480637FF474AE062201E012B90122626075E6002106910DF133018DE80C00236005904246CDF81090CDF8F8
:404400000CE0029153462846FFF76BFD80460D9BD81C02DB626893421DDDA9F102095FFA89F970E60133236184E6B9F1660F14D10029636807DD216113B92268D2071DD549
:4044400001330B4419E013B92268D00701D5023313E0012311E04FF067090D9B0E9A934205DB22682361D10708D5013305E0002BD4BFC3F102030123134423610D9B4FF093
:40448000000AA36556E611B0BDE8F08F2DE9F04791461F460A698B6806469342B8BF1346C9F8003091F843200C46DDF8208012B10133C9F800302368990642BFD9F8003031
:4044C0000233C9F80030256815F0060510D104F1190A07E00123524639463046C04701301AD00135E368D9F800209B1A9D42F1DB94F843302268003318BF012392060FD541
:40450000E118302081F843005A1C94F845102244023382F8431003E04FF0FF30BDE8F08704F1430239463046C0470130F4D02268D9F80050E36802F00602042A08BF5D1BC2
:404540002269A3680CBF25EAE57500259342C4BF9B1AED184FF000091A344D4509D00123224639463046C0470130D5D009F10109F3E70020BDE8F0872DE9F04317460A7E93
:4045800085B06E2A984606460C460C9B01F1430E00F0AE8011D8632A22D009D8002A00F0BB80582A40F0CA8081F84520834955E0642A1ED0692A1CD0C0E0732A00F0B080D9
:4045C00009D86F2A2ED0702A40F0B8800A6842F020020A603EE0752A24D0782A3AD0ADE01A6801F14205111D1960136884F84230A8E021681A6811F0800F02D0111D1960C0
:4046000008E011F0400F02F10401196002D0B2F9003000E01368002B3CDA2D225B4284F8432037E021681A6811F0800F02D0111D196007E011F0400F02F10401196001D019
:40464000138800E01368227E5C496F2A14BF0A2208221BE078225A4984F845202268186812F0800F00F104051D6003D1550601D5038800E00368D00744BF42F02002226087
:404680001BB9226822F0200222601022002084F8430001E049490A226568002DA56008DB206820F0040020602BB9002D7DD175460CE0002B79D07546B3FBF2F002FB103333
:4046C000CB5C05F8013D03460028F5D1082A0BD12368DA0708D5236962689A42DEBF302305F8013C05F1FF35C5EB0E0323612EE008681A6810F0800F496903D0101D186046
:40470000136808E010F0400F02F104001860136801D0198000E0196000232361754616E01A68111D1960156800216268284600F0A7FE08B1401B6060636804E004F142056F
:4047400084F8422001232361002384F84330CDF800803B4603AA21463046FFF797FE013002D14FF0FF3026E023692A4639463046C0470130F5D023689B0710D5002504F134
:40478000190907E001234A4639463046C0470130E7D00135E368039A9B1A9D42F2DBE068039B9842B8BF184605E00B7804F1420584F842308AE705B0BDE8F08364690000A7
:4047C000756900000EB400B54FF402719CB0ADF814106FF00041049107914FF6FF711DAB02900690084853F8042BADF81610006802A9019301F03AFA029B00221A701CB0B1
:404800005DF804EB03B070474081FF1F034613F8012B002AFBD1181A013870472DE9F74F03690C6980469C427FDC013C01F114074FEA840E00F1140606EB0E0357F8245032
:40484000019356F824300135B3FBF5F507EB0E09C5B34FF0000A3846B446D34650F8043B9AB205FB02A21B0C4FEA124A05FB03A392B2C2EB0B0BBCF800204FEA134A5A44F1
:404880001FFA83FBDCF800308145CBEB134303EB224392B242EA03424FEA234B4CF8042BDCD256F80E306BB9019B043B9E421A4602D3C8F8104005E01268043B002AF8D17A
:4048C000013CF3E7404600F0F6FF00282BDB304601354FF0000E57F8042B036891B2C1EB0E0E120C99B27144C2EB134303EB214389B24FEA234EB94541EA034340F8043BDD
:40490000E9D256F8242006EB840362B9043B9E421A4602D3C8F8104005E01268043B002AF8D1013CF3E7284600E0002003B0BDE8F08F0000000000002DE9F04F456A95B0FD
:404940008246219CCDE9022345B9102000F090FDCAF82400456085600560C560DAF82430196859B15A68012393404A608B60504600F0C9FDDAF8243000221A60039BA04A9D
:40498000002BBDBF01232360039B0023BCBF23F000430393DDF80C80A8BF236028F000431B0D1B0593421DD142F20F73209A1360029B43B9934A944BC8F31300002814BFCF
:4049C0001846104600E09048229B002B00F04685C37813B100F1080300E0C31C229A136000F03CBDDDE90245002200232046294601F0AEFE074658B1209A01231360229BAE
:404A0000002B00F01E8581481860013800F026BD12AB019313AB009322462B46504600F0C5FFC8F30A56049056B1C5F3130343F07F51204641F44011A6F2FF3611971DE0C1
:404A4000139B129E1E4406F23243202B0ADD029A06F21240C3F1400322FA00F008FA03F3184304E0C3F12000029B03FA00F001F091FB0123A1F1F871013E11930022644B09
:404A800001F04AFA58A3D3E9002301F0F9FB58A3D3E9002301F042FA044630460D4601F089FB55A3D3E9002301F0EAFB02460B462046294601F032FA04460D4601F090FE1F
:404AC0000022834600232046294601F04BFE58B1584601F06FFB02460B462046294601F037FE08B90BF1FF3BBBF1160F0DD8DDE90223484901EBCB01D1E9000101F050FE28
:404B000030B10BF1FF3B002300E00123109300E01090129B9E1B731E079343BFC3F10008002307934FF00008BBF1000F06DB079BCDF82CB05B440793002705E00023CBEBC4
:404B40000808CBF100070B931E9B092B28D8052BC4BF043B1E931E9BC8BF0025A3F10203D8BF0125032B20D8DFE803F0060E0204012302E0012308E000230A931F9B002BC8
:404B80001DDD9946059321E000230A931F9B0BEB030909F10103012B0593B8BF012315E0012500231E930A9501E001230A934FF0FF390022CDF8149012231F9206E04FF06D
:404BC00001094B46CDF81490CDF87C90DAF8244000226260042101F114029A421CD86268490001326260F6E761436F63A787D23FB3C8608B288AC63FFB799F501344D33F46
:404C00000000F07F866900008F690000636900000000F83FA06900006168504600F03EFCDAF8243020601B680693059B0E2B00F25B81002D00F05881DDE90234BBF1000F73
:404C4000CDE90E3430DD9F4A0BF00F034FEA2B1502EBC303E80618CBCDE908340CD5DDE90E01994B05F00F05D3E9082301F032FC0324CDE9020100E00224934E6DB1E907CC
:404C800008D5DDE90801D6E9002301F0F9FACDE9080101346D100836F0E7DDE90823DDE9020101F017FC20E0CBF1000505B3DDE90E01844B05F00F0203EBC203D3E9002389
:404CC00001F0DEFACDE902017F4E2D110023022455B1EA0705D5D6E9002301F0D1FA013401236D100836F3E71BB1CDE9020100E00224109BE3B1DDE902560022734B28464B
:404D0000314601F02FFD98B1059B8BB1B9F1000F40F3E6800BF1FF330893314600226C4B284601F0ADFA0134CDE902014E4602E0059ECDF820B0204601F03CFADDE9022335
:404D400001F09EFA634B002201F0E8F8A1F1507304460C931D46D6B9DDE9020100225E4B01F0DAF822460C9BCDE9020101F018FD002840F03F820C99224601F10043DDE993
:404D8000020101F0EFFC002840F02B82A8E00A9A4C4B711E002A49D003EBC103D3E9002300204E4901F096FB22462B4601F0B4F8CDE90C01069CDDE9020101F011FD0546C2
:404DC00001F0F8F902460B46DDE9020101F0A4F8DDE90C23303504F8015BCDE9020101F0C1FC002840F01D83DDE902230020374901F092F8DDE90C2301F0B4FC002840F0DD
:404E0000D180069BE31AB3426ADADDE90C0100222F4B01F035FA0022CDE90C01DDE902012B4B01F02DFACDE90201C4E703EBC1012246D1E900012B4601F022FA069BCDE973
:404E40000C011D469C19DDE9020101F0C9FC064601F0B0F902460B46DDE9020101F05CF8303605F8016BAC42CDE902014FF0000222D11A4BDDE90C0101F050F802460B464D
:404E8000DDE9020101F08CFC002840F08B80DDE90C230020114901F03FF802460B46DDE9020101F05FFCD8B114F8013C621E302B40F0B7821446F7E7054B01F0E1F9CDE9E9
:404EC0000201C0E7A0690000786A00000000F03F0000244000001C40000014400000E03FDDE90E34CDE90234139B002B7CDBBBF10E0F79DCAB4B03EBCB03D3E900671F9BEA
:404F0000002B14DA059B002B11DC40F06C810022A54B3046394601F0B3F9DDE9022301F035FC059D2E46002840F05F8165E1069CDDE9028932463B464046494601F0CAFA88
:404F400001F04EFC054601F035F932463B4601F097F90B4602464946404600F0DDFF05F1300E069B04F801EBC3EB040E059B73452DD102460B4600F0D1FF8046894602468F
:404F80000B463046394601F0EDFB78B942464B463046394601F0DCFB002800F04482EB0704D440E2DDF820B000E01C4614F8012C631E392A07D1069A9A42F6D106993022F1
:404FC0000BF1010B0A701A7801321A702BE20022764B01F055F9002200238046894601F0B7FB0028A6D01EE20A9A002A2BD01E9A012A0ADC119A12B103F2334302E0129B9C
:40500000C3F136033D46444613E0059B5D1EAF42BFBF0B9BEA1B9B180B93059BB6BF2F467D1B0025002BA7BF4446059BC3EB08040023079A01211A4450469844079200F002
:4050400001FB064602E03D4644460A9E5CB1079B002B08DDA342A8BF2346079AC3EB0808E41AD31A0793002F1DDD0A9BABB18DB131462A46504600F07FFB049A0146064679
:40508000504600F0E8FA04990890504600F03BFA089B04937A1B06D000E03A460499504600F06AFB04900121504600F0CBFA0B9B05465BB31A460146504600F05DFB1E9BCD
:4050C0000546012B18DC029B83B9039BC3F3130373B9039B23F000473F0D3F054FB1079B08F1010801330793012702E0002700E0029F0B9B73B100E000272B6905EB83034F
:40510000186900F052FAC0F1200004E01E9B012BD9DD0B9F0120079B184410F01F0008D0C0F12003042B02DDC0F11C0002E006D018461C30079B8044034404440793B8F159
:40514000000F05DD42460499504600F063FB0490079B002B05DD29461A46504600F05AFB0546109B23B32946049800F0A4FB00281EDA00230A220499504600F0DBF90A9BD7
:405180000BF1FF3B0490002B00F05F81314600230A22504600F0CEF9B9F1000F06463FDC3BE000BFA06900000000144000002440059B002B2BDC1E9B022B28DDDDF8149026
:4051C000B9F1000F11D129464B460522504600F0B1F901460546049800F06DFB00280CDC03E0354600E000252E461F9B069C6FEA030B09E03546DDF820B0069B069A5C1CCB
:40520000312313700BF1010B05960026F7E00A9BDDF8149023B9069CB2E01E9B022BCFDC002C05DD31462246504600F0F3FA06469FB17168504600F031F90446326906F1D7
:405240000C01023292000C30FEF738FE01222146504600F0DFFA059000E00596029B069F03F00103079329460498FFF7D7FA3146044600F13008049800F01DFB059A029097
:405280002946504600F033FBC36802463BB901460A90049800F00FFB0A9A034600E00123114650460A9300F02EF90A9B53B91E9A42B9079A32B9B8F1390F2AD0029B002BB8
:4052C0001CDC1DE0029A002A04DB1BD11E9ACAB9079ABAB9002B13DD01220499504600F099FA2946049000F0E6FA002803DC07D118F0010F04D0B8F1390F0AD004F131084E
:405300007C1C0CE0002B07F101040BDDB8F1390F03D139233B70013756E008F1010887F800806CE0069B2746E31A4B4504F8018C3BD000230A220499504600F0FBF8059B1E
:4053400004909E424FF00A024FF000033146504604D100F0EFF80646059084E700F0EAF8002306460A220599504600F0E3F8059079E700230A220499504600F0DBF80490ED
:4053800029460498FFF74AFA069B00F1300804F8018BE31A4B45ECDB069B0596B9F1010FACBF4B4401331F46002601220499504600F030FA2946049000F07DFA002803DC72
:4053C00015D118F0010F12D03C4614F8013C621E392B09D1069B934204D10BF1010B3123069A02E01446F0E70133137007E03C4614F8013C621E302B01D11446F8E729462C
:40540000504600F080F8059B6BB12EB19E4203D03146504600F077F80599504600F073F801E0DDF820B00499504600F06CF80023209A23700BF101031360229B1BB11C6030
:4054400001E008480AE0069808E0B9F1000F3FF7E2AE1E9B022B7FF7DEAEB1E615B0BDE8F08F00BF62690000004870474481FF1F024B0146186800F041BB00BF4081FF1F9A
:4054800010B5C9B202449042034605D01C7801308C42F8D1184610BD002010BD70B5456A04460E463DB91020FFF7E2FF6062456085600560C560656AEB6843B1636ADB6897
:4054C00053F8260078B1026843F8262017E021220421204600F0B8FA636AE860DB68002BECD1002070BD012101FA06F56A1D9200204600F0A9FA0028F3D046608560002370
:405500000361C36070BD70B5446A06460D463CB91020FFF7ADFF7062446084600460C4603DB1736A6A68DB6853F82210296043F8225070BD2DE9F04106460C460D691F461C
:4055400001F1140E0023DEF80000013381B202FB0171000C0F0C02FB007089B201EB00419D424FEA10474EF8041BECDCD7B1A3689D4212DB616830460131FFF78FFF804696
:40558000226904F10C01023292000C30FEF796FC21463046FFF7B7FF444604EB850301355F6125612046BDE8F081030C1B0413B90004102300E0002310F07F4F04BF00028C
:4055C000083310F0704F04BF0001043310F0404F04BF80000233002803DB420003D5581C70471846704720207047036813F007020BD0D90722D49A074BBF5B089B0803601C
:4056000003604CBF01200220704799B209B91B0C102213F0FF0F04BF1B0A0832190704BF1B090432990704BF9B080232D90702D45B0805D00132036010467047002070478A
:405640002020704710B50C460121FFF727FF01224461026110BD2DE9F74F14460A69236988469A42BEBF0B46A0461C46D8F81070D4F81090D8F80830D8F8041007EB0906C8
:405680009E42C8BF0131FFF709FF00F114052B4605EB860C0022634502D243F8042BFAE704F1140208F1140102EB890301EB87070093009B0192934257D9B2F800B0BBF195
:4056C000000F23D08946AE464FF0000859F8044BBEF800A0A3B20BFB03A34FEA144ADEF8004043444FEA14480BFB0A84F24604EB13449BB243EA04434F454FEA14484AF8A0
:40570000043B01D9D646E1E7CEF80480019B0432B3F802A0BAF1000F21D02C4689462B684FF00008B9F800E0B4F802B09BB20AFB0EBEA346F04443EA08434BF8043B59F8C8
:40574000043BB4F804E01B0C0AFB03E34F4503EB18434FEA134801D95C46E3E763600435A7E75CF8043D13B9013E002EF9DC066103B0BDE8F08F00002DE9F843154612F078
:40578000030206460F4607D0214C013A002354F82220FFF7CFFE0746AD1036D0746A3CB91020FFF765FE7062446084600460C460D6F82480D8F808404CB940F27121304639
:4057C000FFF740FF04460023C8F8080003604FF00008EB070AD5394622463046FFF73BFF814639463046FFF78EFE4F466D100CD0206808B10446ECE7224621463046FFF772
:405800002AFF2060C0F80080F4E73846BDE8F883686A00002DE9F0470C460746914626694FEA621A56444968A368751CAB4202DA01315B00FAE73846FFF730FE002380468C
:405840001A4600F11401534503DA41F823200133F9E72AEAEA73206901EB830319F01F0904F1140101EB800E14D0C9F1200C002208689A4600FA09F0024343F8042B51F875
:40588000042B8E4522FA0CF2F2D8CAF8042042B1B51C06E0043B51F8042B8E4543F8042FF9D8013D3846C8F810502146FFF72BFE4046BDE8F08703690A6910B59B1A11D16A
:4058C00092001430143183180A4453F8044D52F8041D8C4202D007D3012010BD9842F4D3002010BD184610BD4FF0FF3010BD2DE9F8430C460746114620461546FFF7DBFF69
:40590000061E08D131463846FFF7C8FD012303614661BDE8F883BCBF23462C4638466168BABF1D4601260026FFF7B8FD2B69C660266905F1140904F1140101EB860709EB27
:40594000830800F114054FF0000C51F8042B59F8044B93B29C44A3B2240CC3EB0C03C4EB124202EB23429BB24FEA224CC84543EA02428E4645F8042BE7D8BE450ED25EF8C9
:40598000041B8AB26244131403EB114392B242EA03424FEA234C45F8042BEEE755F8043D0BB9013EFAE70661BDE8F8832DE9F3411C4601219046089E099DFFF76FFDC4F3DD
:4059C0001302C4F30A5407460CB142F480120192B8F1000F19D002A840F8088DFFF705FE009B48B1019AC0F1200102FA01F10B43C2407B61019200E07B61019B002B14BF03
:405A000002210121BB61396107E001A8FFF7EDFD019B01217B613961203034B1A4F2334404443460C0F1350009E0A0F2324007EB810330601869FFF7B8FDC0EB4110286020
:405A4000384602B0BDE8F08138B502FB01F4214600F054F8054618B122460021FEF739FA284638BD38B50546002944D051F8043C0C1F002BB8BFE41800F017FA1E4A13688B
:405A8000114613B96360146030E0A3420DD92268A018834201BF18685B681218226063600C6023E0A24203D813465A68002AF9D118681918A1420BD1216801445818824289
:405AC000196013D110685268014419605A600DE002D90C232B6009E021686018824201BF106852680918216062605C602846BDE8384000F0DBB938BDC881FF1F70B5CD1CE4
:405B000025F0030508350C2D38BF0C25002D064601DBA94202D90C23336046E000F0C5F9234B1C681A462146A1B10B685B1B0ED40B2B03D90B60CC18CD501EE08C420BBF0F
:405B400063684B681360636018BF0C4615E00C464968E9E7174C23681BB9304600F07AF920602946304600F075F9431C18D0C41C24F00304A0420DD12560304600F096F9A6
:405B800004F10B00231D20F00700C31A0ED05A42E25070BD211A304600F05CF90130EBD10C233360304600F081F9002070BD00BFC881FF1FC481FF1F2DE9F0478E68824672
:405BC0009E420C46914698463ED88A8912F4906F3AD02568096902236F1A656905EB450595FBF3F57B1C43449D4238BF1D4653050FD52946FFF782FF064698B13A46216941
:405C0000FEF75CF9A38923F4906343F08003A38113E02A4600F04BF9064670B921695046FFF720FF0C23CAF80030A3894FF0FF3043F04003A381BDE8F08726613E442660C9
:405C400046466561ED1BA560464528BF464649463246206800F00EF9A36800209B1BA36023681E442660BDE8F08700002DE9F04F9DB003938B8980461C060D4616460DD509
:405C80000B695BB94021FFF739FF2860286118B90C23C8F80030CDE040236B610023099320238DF82930DFF89CB130238DF82A3037463C4614F8013B1BB9B7EB060910D00E
:405CC00003E0252BF9D02746F3E74B46324629464046FFF771FF013000F0A780099B4B4409933B78002B00F0A08000234FF0FF3204930793059206938DF853301A93012628
:405D0000052221784E48FFF7BBFB671C049B38B14B4A3C46801A06FA00F018430490EFE7D90644BF20228DF853201A0744BF2B228DF8532022782A2A03D0079A00210A20BE
:405D40000BE0039A111D12680391002A10DA524243F00200079204900BE027463B780134303B092B03D800FB02320121F5E701B107923B782E2B1ED17B782A2B0AD1039B67
:405D800002371A1D1B680392002BB8BF4FF0FF33059310E0002319460593781C0A2407463A780130303A092A03D804FB01210123F5E703B10591032239782248FFF760FB40
:405DC00040B14023CBEB000003FA00F0049B013718430490397806221B487E1C8DF82810FFF74EFB88B1194B33B9039B073323F007030833039314E003AB00932A46144BC1
:405E000004A94046FEF7FEF807E003AB00932A460F4B04A94046FEF7AFFBB0F1FF3F824603D0099B5344099342E7AB895B0601D4099801E04FF0FF301DB0BDE8F08F00BFFC
:405E4000A06A0000A66A0000AA6A000005400000B95B000038B5064C0023054608462360FBF72AF9431C02D1236803B12B6038BD9886FF1F884210B501EB020301D8421E22
:405E80000BE09842FBD28118D21AD34204D013F8014D01F8014DF8E710BD994204D011F8014B02F8014FF8E710BD70477047F8B5074615460E4621B91146BDE8F840FFF781
:405EC0001DBE1AB9FFF7CEFD2846F8BD00F015F885420ED929463846FFF710FE044650B131462A46FDF7EAFF31463846FFF7BAFD01E03046F8BD2046F8BD51F8040C00281B
:405F0000BEBF091851F8043CC01804387047000081F0004102E000BF83F0004330B54FEA41044FEA430594EA050F08BF90EA020F1FBF54EA000C55EA020C7FEA645C7FEA97
:405F4000655C00F0E2804FEA5454D4EB5555B8BF6D420CDD2C4480EA020281EA030382EA000083EA010180EA020281EA0303362D88BF30BD11F0004F4FEA01314FF4801C7B
:405F80004CEA113102D0404261EB410113F0004F4FEA03334CEA133302D0524263EB430394EA050F00F0A780A4F10104D5F1200E0DDB02FA0EFC22FA05F2801841F100014D
:405FC00003FA0EF2801843FA05F359410EE0A5F120050EF1200E012A03FA0EFC28BF4CF0020C43FA05F3C01851EBE37101F0004507D54FF0000EDCF1000C7EEB00006EEB6D
:406000000101B1F5801F1BD3B1F5001F0CD349085FEA30004FEA3C0C04F101044FEA445212F5800F80F09A80BCF1004F08BF5FEA500C50F1000041EB045141EA050130BD0B
:406040005FEA4C0C404141EB010111F4801FA4F10104E9D191F0000F04BF01460020B1FA81F308BF2033A3F10B03B3F120020CDA0C3208DD02F1140CC2F10C0201FA0CF0A9
:4060800021FA02F10CE002F11402D8BFC2F1200C01FA02F120FA0CFCDCBF41EA0C019040E41AA2BF01EB0451294330BD6FEA04041F3C1CDA0C340EDC04F11404C4F12002FB
:4060C00020FA04F001FA02F340EA030021FA04F345EA030130BDC4F10C04C4F1200220FA02F001FA04F340EA0300294630BD21FA04F0294630BD94F0000F83F4801306BF53
:4061000081F480110134013D4EE77FEA645C18BF7FEA655C29D094EA050F08BF90EA020F05D054EA000C04BF1946104630BD91EA030F1EBF0021002030BD5FEA545C05D1BF
:406140004000494128BF41F0004130BD14F580043CBF01F5801130BD01F0004545F0FE4141F470014FF0000030BD7FEA645C1ABF194610467FEA655C1CBF0B46024650EA08
:40618000013406BF52EA033591EA030F41F4002130BD00BF90F0000F04BF0021704730B54FF4806404F132044FF000054FF0000150E700BF90F0000F04BF0021704730B5F8
:4061C0004FF4806404F1320410F0004548BF40424FF000013EE700BF42004FEAE2014FEA31014FEA02701FBF12F07F4393F07F4F81F06051704792F0000F14BF93F07F4F66
:40620000704730B54FF4607401F0004521F0004120E700BF50EA010208BF704730B54FF000050AE050EA010208BF704730B511F0004502D5404261EB41014FF4806404F1A6
:4062400032045FEA915C3FF4DCAE4FF003025FEADC0C18BF03325FEADC0C18BF033202EBDC02C2F1200300FA03FC20FA02F001FA03FE40EA0E0021FA02F11444C1E600BF91
:4062800070B54FF0FF0C4CF4E06C1CEA11541DBF1CEA135594EA0C0F95EA0C0F00F0DEF82C4481EA030621EA4C5123EA4C5350EA013518BF52EA033541F4801143F48013B2
:4062C00038D0A0FB02CE4FF00005E1FB02E506F00042E0FB03E54FF00006E1FB03569CF0000F18BF4EF0010EA4F1FF04B6F5007F64F5407404D25FEA4E0E6D4146EB0606BB
:4063000042EAC62141EA55514FEAC52040EA5E504FEACE2EB4F1FD0C88BFBCF5E06F1ED8BEF1004F08BF5FEA500E50F1000041EB045170BD06F0004646EA010140EA02006E
:4063400081EA0301B4EB5C04C2BFD4EB0C0541EA045170BD41F480114FF0000E013C00F3AB8014F1360FDEBF002001F0004170BDC4F10004203C35DA0C341BDC04F1140475
:40638000C4F1200500FA05F320FA04F001FA05F240EA020001F0004221F0004110EBD37021FA04F642EB06015EEA430E08BF20EAD37070BDC4F10C04C4F1200500FA04F36F
:4063C00020FA05F001FA04F240EA020001F0004110EBD37041F100015EEA430E08BF20EAD37070BDC4F1200500FA05F24EEA020E20FA04F301FA05F243EA020321FA04F09D
:4064000001F0004121FA04F220EA020000EBD3705EEA430E08BF20EAD37070BD94F0000F0FD101F00046400041EB010111F4801F08BF013CF7D041EA060195F0000F18BFE1
:40644000704703F00046520043EB030313F4801F08BF013DF7D043EA0603704794EA0C0F0CEA135518BF95EA0C0F0CD050EA410618BF52EA4306D1D181EA030101F00041E3
:406480004FF0000070BD50EA410606BF1046194652EA430619D094EA0C0F02D150EA013613D195EA0C0F05D152EA03361CBF104619460AD181EA030101F0004141F0FE41E5
:4064C00041F470014FF0000070BD41F0FE4141F4780170BD70B54FF0FF0C4CF4E06C1CEA11541DBF1CEA135594EA0C0F95EA0C0F00F0A7F8A4EB050481EA030E52EA033545
:406500004FEA013100F088804FEA03334FF0805545EA131343EA12634FEA022245EA111545EA10654FEA00260EF000419D4208BF964244F1FD0404F5407402D25B084FEAB9
:406540003202B61A65EB03055B084FEA32024FF480104FF4002CB6EB020E75EB030E22BFB61A754640EA0C005B084FEA3202B6EB020E75EB030E22BFB61A754640EA5C0005
:406580005B084FEA3202B6EB020E75EB030E22BFB61A754640EA9C005B084FEA3202B6EB020E75EB030E22BFB61A754640EADC0055EA060E18D04FEA051545EA16754FEAD2
:4065C00006164FEAC30343EA52734FEAC2025FEA1C1CC0D111F4801F0BD141EA00014FF000004FF0004CB6E711F4801F04BF01430020B4F1FD0C88BFBCF5E06F3FF6AFAE1A
:40660000B5EB030C04BFB6EB020C5FEA500C50F1000041EB045170BD0EF0004E4EEA113114EB5C04C2BFD4EB0C0541EA045170BD41F480114FF0000E013C90E645EA060E79
:406640008DE60CEA135594EA0C0F08BF95EA0C0F3FF43BAF94EA0C0F0AD150EA01347FF434AF95EA0C0F7FF425AF104619462CE795EA0C0F06D152EA03353FF4FDAE104637
:40668000194622E750EA410618BF52EA43067FF4C5AE50EA41047FF40DAF52EA43057FF4EBAE12E74FF0FF3C06E000BF4FF0010C02E000BF4FF0010C4DF804CD4FEA410C84
:4066C0007FEA6C5C4FEA430C18BF7FEA6C5C1BD001B050EA410C0CBF52EA430C91EA030F02BF90EA020F0020704710F1000F91EA030F58BF994208BF90422CBFD8176FEA55
:40670000E37040F0010070474FEA410C7FEA6C5C02D150EA013C07D14FEA430C7FEA6C5CD6D152EA033CD3D05DF8040B704700BF8446104662468C461946634600E000BFAC
:4067400001B5FFF7B7FF002848BF10F1000F01BD4DF808EDFFF7F4FF0CBF012000205DF808FB00BF4DF808EDFFF7EAFF34BF012000205DF808FB00BF4DF808EDFFF7E0FF01
:4067800094BF012000205DF808FB00BF4DF808EDFFF7CEFF94BF012000205DF808FB00BF4DF808EDFFF7C4FF34BF012000205DF808FB00BF4FEA410C7FEA6C5C02D150EA84
:4067C000013C0AD14FEA430C7FEA6C5C02D152EA033C02D14FF0000070474FF0010070474FEA410212F5001215D211D56FF47873B3EB625212D94FEAC12343F0004343EA0D
:40680000505311F0004F23FA02F018BF404270474FF00000704750EA013005D111F0004008BF6FF0004070474FF00000704700BF00000000000000005347205354415254B4
:40684000200D0A0D0A00000053472053544F50200D0A0D0A000000005258202564200A006D61696E2E6300005458202578202578202578202578200A000000001B5B324A0D
:406880001B5B480041206D696E696D616C20756E69742074657374696E67206672616D65776F726B20666F7220430D0A0D0A00005041535345442025732C2025642C202530
:4068C000730D0A004641494C45442025732C2025642C2025730D0A00004F00403000605100401000000001408004000501408009000F01400001801401400002001701400D
:40690000000500400140000A004C0140000200500140200060520040E4100048060000510140EC100048080080040140F41000488000800E01407411004880000014014073
:40694000F41100488000801601407412004880004300494E4600696E66004E414E006E616E003000303132333435363738394142434445460030313233343536373839616E
:40698000626364656600496E66696E697479004E614E00504F534958002E000000000000000000000000F03F000000000000244000000000000059400000000000408F40A0
:4069C000000000000088C34000000000006AF8400000000080842E4100000000D01263410000000084D797410000000065CDCD41000000205FA00242000000E8764837427C
:406A0000000000A2941A6D42000040E59C30A2420000901EC4BCD64200003426F56B0C430080E03779C3414300A0D8855734764300C84E676DC1AB43003D9160E458E14374
:406A4000408CB5781DAF154450EFE2D6E41A4B4492D54D06CFF08044F64AE1C7022DB544B49DD9794378EA4405000000190000007D000000000000000080E03779C34143A9
:406A8000176E05B5B5B89346F5F93FE9034F384D321D30F94877825A3CBF737FDD4F1575232D302B2000686C4C0065666745464700000000F8B500BFF8BC08BC9E46704740
:406AC0004D000000A1110000F8B500BFF8BC08BC9E46704729000000E86A0000C880FF1FB80000002005000000000000A086FF1F00366E01C05D0000180000000000E02E2E
:406B0000000000000000000000000000000000000000000000000000000000000000000050690000000000000000000000000000000000000000000000000000000000009C
:406B40000000000000000000000000000000000000000000000000000000000000000000E080FF1F99690000A56A0000A56A0000A56A0000A56A0000A56A0000A56A00003B
:406B8000A56A0000A56A0000A56A0000FFFFFFFFFFFFFFFFFFFFFFFFFFFF0000000000000000000000000000000000000000000000000000000000000000000000000000B6
:406BC0000000000000000000000000000000000000000000000000000000000000000000000000000000000000000000000000000000000000000000000000000000000095
:406C00000000000000000000000000000000000000000000000000000000000000000000000000000000000000000000000000000000000000000000000000000000000054
:406C40000000000000000000000000000000000000000000000000000000000000000000000000000000000000000000000000000000000000000000000000000000000014
:406C800000000000000000000000000000000000000000000000000000000000000000000000000000000000000000000000000000000000000000000000000000000000D4
:020000040003F7
:0200000480007A
:40000000084F0040105200400F640040026500403C0001403E010140550201405E0301400F0401405D05014060060140570701405C0801405C090140550A0140540B01402E
:400040005F0C0140530D01402D0E01403A0F01401E140140591501401D1601405A1701406A18014059190140511A0140591B014008400140264101402D4201401443014095
:40008000064501400A46014001470140134801401B4901400B4C01400D4D01400D50014001100A870D1016C61910222725102EE10008012C04D308E009600C041050111049
:4000C000140D184919431C902408282029207C307501806F83678478856786678767884789728A6F8B0F8C0F8D388E0F8F0D840F8607040408080F0C11011D0C2303240528
:40010000260A2C052D082F043001310232023301340835043604370838823E503F54540F580459045B045C115D105F05811083098B028D11938096019711980299CF9B2051
:400140009E08AB04AE06AF40B002B1C0B201B330B404B503B608B70CBE01BF04D280D804D904DB04DC11DD10DF010108030808100B080C800E040F20102212011580188039
:400180001A021B281D881E441F40210222A4242325102602270829802A012E202F013182361A38803C013D203F804402454059025A985C625F0861106310641065016705F1
:4001C00076807940802082108502862087308802C006C2E0C485CA39CCE9CEB8D6FFD8F6DE08E209E40200190104020404100A010D0C0E190F02130414031A021B0D1E1033
:4002000022102B04301031083208330234033504360437013E013F105280580459045B045C115D105F0183088508870688088E048F0190019102A201AD01AE0AB001B104F7
:40024000B202B301B408B502B604B708BE11BF54C042C103C520C6C5C70EC81FC9FFCAFFCBFFCDA0CF01D018D407D804D904DA04DB04DC11DD11DF01E040E280E440E540FF
:40028000E680E840EA50EBA8EC40ED20EE50EFA8001001400544064007040B800E290F0110821680181019801A841D461E0A2001221525012608271929802C202E082F04BC
:4002C000320135023710388039423A043C043D023F84410642084420450448605148521059085A405B206108621075028214834084408580872089408C418E048F109022AF
:40030000910892409380944095809680970F9A809C209D019E20A080A110A202A540A618A740A9C8AB10AD04B108B281B480B510C0F3C2E8C419CA28CCA1CE9BD007D60EEA
:40034000D806E240E638EA0CEC01EE040001010126033002360137013E403F4054205604580459045B045C015F01010202030406060107040D080E011020150417511942C9
:400380001C041D091E011F242001244025A026082A802B012F0836293B013C48468047084D804F065401561858015C205D405E086001612263106401660867056D066E2088
:4003C0006F0174807510801081018311850188218D079012920C948495029601970A98029A049B089D099E209F04A020A110A203A302A402A544A610A804AC02AE40AF02A9
:40040000B201B305B410B510C0F8C2A0C4F4CA20CCE0CE51D0C0D210D671D86FE220E652E808EE50020303020F10132015201708191B1B401C011F0123042D203001310384
:4004400033043518360237603E013F4040314105450C4625470E483D49FF4AFF4BFF4DA04F01501852805407580459045A045B045C115D115F01604062806440654066800F
:4004800068406A506BA86C406D206E506FA8850488028B0395019E06A401B002B204B302B401B504B701BE11BF50C001C102C210C404C5FCC60EC7BDC837C9FFCAFFCBFF87
:4004C000CC22CEF0CF0CD08CD110D280D407D804D904DA24DB04DC11DD18DF11E840E901EAC0EB01001006400B020D801010181019201A801C401D80200421482501268896
:4005000027442F8231083611374439043A143D013F80402C42614601470849084B014D804F0451015344540256695A885B105C605E046124660867047340768079C07B088E
