:400000000080002011000000DD0F0000DD0F000080B500AF024A034B1B68136001F010F8BC760040FA46004010B5054C237833B9044B13B10448AFF300800123237010BD36
:400040008081FF1F00000000285F0000084B10B51BB108490848AFF300800848036803B910BD074B002BFBD0BDE81040184700BF000000008481FF1F285F0000C880FF1F84
:400080000000000080B500AF00F0C6FC00BF80BD80B500AF00F018FD00BF80BD80B500AF0A2000F08FFA0A2000F040FB0A2000F0F1FB0A2000F0A2FC00BF80BD80B500AF4F
:4000C00041F2883000F07EFA41F2883000F02EFB41F2883000F0DEFB41F2883000F08EFC00BF80BD80B582B000AF02F0E1F80346FB715F4B00221A60FB790C2B6DD00C2B99
:4001000011DC042B41D0042B06DC022B29D0022B34DC012B1ED087E00A2B4AD00A2B55DC092B3FD080E0122B22D0122B06DC0E2B67D00E2B5EDB0F2B6AD075E01A2B3FD0F8
:400140001A2B02DC142B27D06EE01C2B4CD0FF2B64D069E000F0D8F903461A46444B1A6062E000F0E1F903461A46414B1A605BE0404B1B681A463E4B1A6055E000F078FA5D
:4001800003461A463A4B1A604EE000F081FA03461A46374B1A6047E0374B1B681A46344B1A6041E000F018FB03461A46304B1A603AE000F021FB03461A462D4B1A6033E03E
:4001C0002E4B1B681A462A4B1A602DE000F0B8FB03461A46264B1A6026E000F0C1FB03461A46234B1A601FE0254B1B681A46204B1A6019E001F01AFA03461A461C4B1A606E
:4002000012E003F067FA03461A46194B1A600BE000F06EFC0246164B1A6005E0144B00221A6000F0F9FB00BF02F07EF802F0A2F80F4B3B605A2002F02BF83B681B781846FA
:4002400001F09EFF3B6801331B78184601F098FF3B6802331B78184601F092FF3B6803331B78184601F08CFF00BF0837BD4680BDE083FF1FA081FF1FA881FF1FB081FF1F7B
:40028000B881FF1F80B500AF01F094F900BF80BD80B500AF03F0E2F900BF80BD80B588B000AF62B601F0DEFC01F0ECFE00F05CFF01F0A4F903F0F6F94E4802F029FD4E4802
:4002C00002F08AFC4D4802F0D5FC4D4803F0C0FB4C4803F00BFC4C4803F046FA4B4803F091FA4B4801F0EAFB4A4802F089F902F059FA01F0D7F8484801F092FB474802F082
:40030000CDF901F005FB02F077FB454802F02CFF444802F0DBFE02F099FD02F093FE424803F04EF9414803F0FDF802F0BBFF03F0B5F83F4802F09EFA02F0D6FB3D4800F0CC
:400340008FFF3D4800F08CFF41F2883000F03AF941F2883000F0EAF941F2883000F09AFA41F2883000F04AFB00F0CEF8F86100F0DBF8B861314B1B68FA699A4205D9304A13
:40038000BB6913602D4AFB69136000F071F9786100F07EF938612B4B1B687A699A4205D9294A3B691360274A7B69136000F014FAF86000F021FAB860244B1B687A699A4213
:4003C00005D9234ABB681360204AFB68136000F0B7FA786000F0C4FA38601E4B1B687A689A42C1D91C4A3B6813601A4A7B681360BAE700BFE5000000850000009100000048
:400400009D000000BD00000085020000910200005D04000095040000E1050000FD0500004907000065070000B1080000CD08000079040000305F0000385F00009C81FF1F3E
:40044000A081FF1FA481FF1FA881FF1FAC81FF1FB081FF1FB481FF1FB881FF1F80B400AF044B1B680133034A136000BFBD4680BC704700BFBC81FF1F80B400AF044B1B6842
:40048000013B034A136000BFBD4680BC704700BFC081FF1F80B582B000AF174B1B68012B26D802F07BFB03467B60134B1B68134A1268134941F8232002F070FB03463B60EB
:4004C0003A687B689A4208D90B4B1B680C4A52F82320013A0A4941F82320074B1B683A68D1B2084AD154044B1B680133024A136000BF0837BD4680BDE883FF1FC081FF1F98
:400500001884FF1FFC83FF1F98B500AF054B1B68DC0101F005F8034603F07F032343184698BD00BFBC81FF1F80B584B000AF0023FB600023BB601F4B1B68022B10D11E4BA1
:400540001B681B021D4A12781343FB601A4B5B681B021A4A52781343FA68D31AFB6023E0144B1B68012B1FD1134B1B681B02134A12781343FB6002F011FB0346FB71104B21
:400580001B68BB6002F00AFB0346BB71BA79FB799A4202D9BB68013BBB60BB681A02BB791343FA68D31AFB60FB6818461037BD4680BD00BFE883FF1F1884FF1FFC83FF1FFF
:4005C000C081FF1F80B582B000AF78607B689BB2184602F015F900BF0837BD4680BD00BF80B400AF044B1B680133034A136000BFBD4680BC704700BFC481FF1F80B582B03C
:4006000000AF174B1B68012B25D802F0C7FA0346FB71134B1B68134A1268134941F8232002F0BCFA0346BB71BA79FB799A4208D90B4B1B680C4A52F82320013A0A4941F801
:400640002320074B1B680949BA79CA54044B1B680133034A136000BF0837BD4680BD00BF0C84FF1FC081FF1F1084FF1FF483FF1F98B500AF054B1B68DC0101F087F9034642
:4006800003F07F032343184698BD00BFC481FF1F80B584B000AF0023FB600023BB601F4B1B68022B10D11E4B1B681B021D4A12781343FB601A4B5B681B021A4A5278134347
:4006C000FA68D31AFB6023E0144B1B68012B1FD1134B1B681B02134A12781343FB6002F05DFA0346FB71104B1B68BB6002F056FA0346BB71BA79FB799A4202D9BB68013B4E
:40070000BB60BB681A02BB791343FA68D31AFB60FB6818461037BD4680BD00BF0C84FF1F1084FF1FF483FF1FC081FF1F80B582B000AF78607B689BB2184602F07FF900BF2B
:400740000837BD4680BD00BF80B400AF044B1B680133034A136000BFBD4680BC704700BFC881FF1F80B582B000AF174B1B68012B25D802F013FA0346FB71134B1B68134AA1
:400780001268134941F8232002F008FA0346BB71BA79FB799A4208D90B4B1B680C4A52F82320013A0A4941F82320074B1B680949BA79CA54044B1B680133034A136000BF57
:4007C0000837BD4680BD00BF2884FF1FC081FF1F2084FF1FF083FF1F98B500AF054B1B68DC0102F071FB034603F07F032343184698BD00BFC881FF1F80B584B000AF0023FD
:40080000FB600023BB601F4B1B68022B10D11E4B1B681B021D4A12781343FB601A4B5B681B021A4A52781343FA68D31AFB6023E0144B1B68012B1FD1134B1B681B02134AAA
:4008400012781343FB6002F0A9F90346FB71104B1B68BB6002F0A2F90346BB71BA79FB799A4202D9BB68013BBB60BB681A02BB791343FA68D31AFB60FB6818461037BD46A3
:4008800080BD00BF2884FF1F2084FF1FF083FF1FC081FF1F80B582B000AF78607B689BB2184602F0F1FB00BF0837BD4680BD00BF80B400AF044B1B680133034A136000BF01
:4008C000BD4680BC704700BFCC81FF1F80B582B000AF174B1B68012B25D802F05FF90346FB71134B1B68134A1268134941F8232002F054F90346BB71BA79FB799A4208D90D
:400900000B4B1B680C4A52F82320013A0A4941F82320074B1B680949BA79CA54044B1B680133034A136000BF0837BD4680BD00BF0084FF1FC081FF1F0484FF1FEC83FF1F82
:4009400098B500AF054B1B68DC0102F0E9FC034603F07F032343184698BD00BFCC81FF1F80B584B000AF0023FB600023BB601F4B1B68022B10D11E4B1B681B021D4A12782A
:400980001343FB601A4B5B681B021A4A52781343FA68D31AFB6023E0144B1B68012B1FD1134B1B681B02134A12781343FB6002F0F5F80346FB71104B1B68BB6002F0EEF817
:4009C0000346BB71BA79FB799A4202D9BB68013BBB60BB681A02BB791343FA68D31AFB60FB6818461037BD4680BD00BF0084FF1F0484FF1FEC83FF1FC081FF1F80B582B095
:400A000000AF78607B689BB2184602F069FD00BF0837BD4680BD00BF80B584B000AF032000F0D4FC012000F063FC1F4B00221A601D4B1B681D4A13601C4B1B681C4A136053
:400A40001B4B1B681B4A1360002000F059FD002000F08CFF002002F027FA002002F050FC154B00221A60144B1B68144A1360134B1B68134A1360124B1B68124A13600023F1
:400A8000FB600023BB6000237B6000233B60002000F09CFC002000F0DBFD002002F02CFE00BF1037BD4680BD0084FF1F2884FF1F0C84FF1FE883FF1FCC81FF1FC881FF1F5A
:400AC000C481FF1FBC81FF1F80B500AF022000F07DFC012000F00CFC062000F077FC012000F006FC042000F071FC00BF80BD00BF80B582B000AF00F079FC034623F00F03EF
:400B0000FB71FB791B09FB71FB7918460837BD4680BD00BF80B582B000AF786039603A680021786803F091F800BF0837BD4680BD80B584B000AFF860B9607A607A68B968EB
:400B4000F86803F077F800BF1037BD4680BD00BF80B483B000AF0346FB71FEE780B487B000AF7860396000233B6100237B6127E07B699B007A6813441B68BB60BB68FB73C7
:400B8000BB6823F0FF03BB6014E03B695B003A6813441B781A46BB68134419463B695B003A6813445B780B703B6901333B61FB7B013BFB73FB7B002BE7D17B6901337B6103
:400BC0007B69272BD4D900BF1C37BD4680BC704780B582B000AF584B1B78BB70574B3B221A80574B18221A70564B17221A80564B1A221A70554B4FF443721A80544B1822AE
:400C00001A70544B02221A704FF0402308221A70514BF3221A70484B03221A704F4B84221A704F4B05221A704E4B7B6006E04FF4F07002F0A9FF7B68013B7B607B68002B56
:400C400006D0474B1B78DBB203F02003002BEED0394ABB781370444B43F213321A80434B05221A70414B1B7843F2C8237B6006E04FF4F07002F088FF7B68013B7B607B68D9
:400C8000002B05D0394B1B78DBB25BB2002BEFDB374B03221A70374B374A1278D2B21A70364B14221A80364B41F251221A800023FB7019237B6014E0FB785B00DAB2314B41
:400CC0001B78DBB203F00103DBB21343DBB203F00303FB704FF4F07002F056FF7B68013B7B607B68002B02D0FB78032BE4D17B68002B02D10320FFF72BFF234B4FF4807228
:400D00001A80214B07221A70204B00221A70204B48221A701C4B00221A701E4B02221A701D4A1D4B1B78DBB243F00703DBB2137000BF0837BD4680BD9846004080400040C2
:400D4000824000408440004086400040884000408A400040004300400A4300400943004008430040A0860100124200401042004000420040A1460040080100492242004042
:400D8000204200402542004004400040064000400840004001400040A243004080B483B000AF0B4B1B78FB710A4AFB7903F00703DBB21370084AFB791B09DBB21370074B26
:400DC00044221A7000BF0C37BD4680BC704700BFCF0100496E5800406F5800407658004080B586B000AF72B65A4A5A4B1B78DBB243F00403DBB213700023FB7513E0FA7D26
:400E000013465B0013445B00534A13443B613B691A683B699B889BB219461046FFF77AFEFB7D0133FB75FB7D092BE8D90023FB751CE0FA7D13469B0013445B00474A134442
:400E4000FB60FB681B68BB60FB685B687B60FB681A7A5B7A1B0213437B807B881A467968B868FFF765FEFB7D0133FB75FB7D052BDFD93B494FF09040FFF770FE394B2022E5
:400E80001A70394B394A1A60394B3A4A1A603A4B3A4A1A603A4A3A4B1B78DBB243F00203DBB21370374A374B1B78DBB243F00203DBB21370344A344B1B78DBB243F04003B3
:400EC000DBB21370314A314B1B78DBB243F01003DBB2137008222E492E48FFF729FE0A222D492E48FFF724FE0A222D492D48FFF71FFE08222C492D48FFF71AFE0A222C4924
:400F00002C48FFF715FE08222B492C48FFF710FE08222B492B48FFF70BFE08222A492B48FFF706FE2A4A2A4B1B78DBB243F00803DBB21370274B00221A70FFF749FEFFF75C
:400F40002DFF0E2210492448FFF7F2FD00BF1837BD4680BDE8460040645F0000A05F0000A000004812600040D8020140040404E4580C014004040444D81601400404048494
:400F80000350014013500140A0430040C2430040701500480251004078150048C051004084150048F051004090150048125100409815004820510040A415004832510040AF
:400FC000AC15004842510040B4150048525100402243004000480040B043004080B500AF02F0FCFD03461B680C2B00D1FEE7FEE780B584B000AF78600F4B1A687B6813444E
:401000001A460E4BD31A802B09DC0B4B1B68FB60094B1A687B681344074A136007E002F0DDFD02460C2313604FF0FF33FB60FB6818461037BD4680BDCC80FF1FD084FF1FE5
:4010400080B586B000AF224B7B61224B3B61204B7B6135E03B691B68FB603B695B68BB603B699B683B6000237B600CE0FB681A68BB681A60BB680433BB60FB680433FB608C
:401080007B6804337B607A683B689A42EED13B69DB683B6000237B6008E0BB6800221A60BB680433BB607B6804337B607A683B689A42F2D13B6910333B617B69013B7B61E7
:4010C0007B69002BC6D102F08FFDFFF7E7F8FEE7010000002C61000080B582B000AF184B184A1A60184A184B1B6843F40073136000237B600FE07B68032B04D8134A7B68B0
:4011000052F8233000E0124B12497A6841F822307B6801337B607B682F2BECD90E4B1B78DAB20E4B1A700E4B0A4A1A60FFF758FE0C4B00221A6000BF0837BD4680BD00BF5B
:401140000CED00E00004FA0514ED00E000000000DD0F00000080FF1FBC760040C480FF1F08ED00E0C080FF1F80B500AF064B1B78002B04D100F00AF8034B01221A7000F07C
:4011800025F800BF80BD00BFD081FF1F80B400AF094B72221A70094B20221A70084B06221A70084B47221A70074B00221A7000BFBD4680BC704700BF8F6400408A64004055
:4011C00028650040386500408B65004080B582B000AF02F0F8FC0346FB71114A104B1B78DBB243F02003DBB213700E4A0D4B1B78DBB243F01003DBB213700B4A0A4B1B78C5
:40120000DBB243F01003DBB2137000F04BF8FB79184602F0DCFC00BF0837BD4680BD00BF9F6400409A6400409B65004080B483B000AF0346FB7100BF074B1B78DBB203F04F
:401240000403002BF8D1054AFB79137000BF0C37BD4680BC704700BF6B6500404B65004080B584B000AF78600023FB810C4B1B78002B10D009E0FB897A6813441B7818465B
:40128000FFF7D4FFFB890133FB81FB897A6813441B78002BEFD100BF1037BD4680BD00BFD081FF1F80B400AF094A094B1B78DBB243F00403DBB21370064A064B1B78DBB2CD
:4012C00043F00403DBB2137000BFBD4680BC7047A2430040B243004080B483B000AF0346FB7101BE00BF0C37BD4680BC704700BF80B582B000AF786008E00C4B1B68184646
:4013000002F042FC7B68A3F500437B607B68B3F5004FF2D8064B1B687A6802FB03F3184602F032FC00BF0837BD4680BDDC80FF1FD480FF1F80B584B000AF03463960FB7189
:401340000F4B1B68FB60FB791F2B02D90020FFF7C3FFFB7903F01F0310339B00FA6813441B68BB60FB7903F01F0310339B00FA6813443A681A60BB6818461037BD4680BDC2
:4013800008ED00E080B582B000AF03460A46FB711346BB71BB79072B02D90020FFF79CFFFB791F2B02D90020FFF796FFFB7903F01F0303F1604303F56443BA795201D2B2B9
:4013C0001A7000BF0837BD4680BD00BF80B483B000AF0346FB71044AFB79137000BF0C37BD4680BC704700BF7665004080B400AF034B1B78DBB21846BD4680BC704700BF20
:401400006464004080B582B000AF1C4B1B78DBB223F00703FB71194AFB7943F00303DBB21370164B1B78DBB223F00303FB71134AFB79137000F0B0F8802000F08DF8002037
:4014400000F05EF80C2000F03FF800F04DF8802000F092F802F0B7FB0346BB71084A084B1B78DBB243F01003DBB21370BB79184602F0ADFB00BF0837BD4680BD77650040CA
:401480009764004080B400AF054A054B1B78DBB263F07F03DBB2137000BFBD4680BC70477765004080B500AF064B1B78002B04D1FFF7A8FF034B01221A70FFF7E3FF00BFA2
:4014C00080BD00BFD281FF1F80B483B000AF0346FB71044AFB79137000BF0C37BD4680BC704700BF8764004080B400AF034B1B78DBB21846BD4680BC704700BF676400401E
:4015000080B483B000AF0346FB71044AFB79137000BF0C37BD4680BC704700BF0764004080B400AF044B1B78044B1B78DBB21846BD4680BC704700BF07640040476400405C
:4015400080B400AF034B1B78DBB21846BD4680BC704700BF4764004080B483B000AF0346FB71044AFB79137000BF0C37BD4680BC704700BF2764004080B483B000AF03462B
:40158000FB71044AFB79137000BF0C37BD4680BC704700BF3764004080B500AF01E0FFF7CFFFFFF7A1FF034603F04003002BF6D100BF80BD80B400AF00BFBD4680BC7047C4
:4015C00080B582B000AF0F2000F06AF800F05AF802F0F9FA0346FB71074A074B1B78DBB243F01003DBB21370FB79184602F0EFFA00BF0837BD4680BD9964004080B500AF53
:4016000000F0AEF84FF4004000F0D8F8064B1B78002B04D1FFF7CEFF034B01221A70FFF7CFFF00BF80BD00BFD381FF1F80B582B000AF00F0D3F80346FB80FB88A3F500434B
:401640009BB2BB80B7F9043018460837BD4680BD80B584B000AF0346FB80B7F90630002B04DBFB88A3F50043FB8103E0FB88A3F50043FB81FB89184600F0A0F800BF10374E
:40168000BD4680BD80B400AF044B1B78DBB203F00F03DBB21846BD4680BC70476964004080B483B000AF0346FB71044AFB79137000BF0C37BD4680BC704700BF89640040B1
:4016C00080B582B000AF1C4B1B78DBB223F00703FB71194AFB791370174B1B78DBB223F00303FB71144AFB79137000F0B3F84FF4004000F08FF84FF4004000F05FF800208F
:4017000000F040F800F04EF84FF4004000F092F802F059FA0346BB71084A084B1B78DBB243F01003DBB21370BB79184602F04FFA00BF0837BD4680BD7E6400409E6400400A
:4017400080B400AF054A054B1B78DBB263F07F03DBB2137000BFBD4680BC70477E64004080B500AF064B1B78002B04D1FFF7A8FF034B01221A70FFF7E3FF00BF80BD00BF18
:40178000D481FF1F80B483B000AF0346FB71044AFB79137000BF0C37BD4680BC704700BF8E64004080B400AF034B1B78DBB21846BD4680BC704700BF6E64004080B483B0E0
:4017C00000AF0346FB80044AFB88138000BF0C37BD4680BC704700BF1C68004080B400AF044B1B78044B1B889BB21846BD4680BC704700BF0E6400409C68004080B400AFA7
:40180000034B1B889BB21846BD4680BC704700BF9C68004080B483B000AF0346FB80044AFB88138000BF0C37BD4680BC704700BF5C68004080B483B000AF0346FB80044AF2
:40184000FB88138000BF0C37BD4680BC704700BF7C68004080B500AF01E0FFF7CFFFFFF7A1FF034603F04003002BF6D100BF80BD80B582B000AF1C4B1B78DBB223F0070331
:40188000FB71194AFB7943F00303DBB21370164B1B78DBB223F00303FB71134AFB79137000F0B0F8802000F08DF8002000F05EF8002000F03FF800F04DF8802000F092F899
:4018C00002F081F90346BB71084A084B1B78DBB243F01003DBB21370BB79184602F077F900BF0837BD4680BD776400409064004080B400AF054A054B1B78DBB263F07F03F4
:40190000DBB2137000BFBD4680BC70477764004080B500AF064B1B78002B04D1FFF7A8FF034B01221A70FFF7E3FF00BF80BD00BFD581FF1F80B483B000AF0346FB71044A47
:40194000FB79137000BF0C37BD4680BC704700BF8064004080B400AF034B1B78DBB21846BD4680BC704700BF6064004080B483B000AF0346FB71044AFB79137000BF0C371B
:40198000BD4680BC704700BF0364004080B400AF044B1B78044B1B78DBB21846BD4680BC704700BF036400404364004080B400AF034B1B78DBB21846BD4680BC704700BF92
:4019C0004364004080B483B000AF0346FB71044AFB79137000BF0C37BD4680BC704700BF2364004080B483B000AF0346FB71044AFB79137000BF0C37BD4680BC704700BFAB
:401A00003364004080B500AF01E0FFF7CFFFFFF7A1FF034603F04003002BF6D100BF80BD80B582B000AF786000F03CF8786800F009F8072000F018F800F028F800BF08372B
:401A4000BD4680BD80B485B000AF7860054B1B68FB60FB6868337A681A6000BF1437BD4680BC704708ED00E080B483B000AF0346FB71054AFB795B01DBB2137000BF0C37DD
:401A8000BD4680BC704700BF0AE400E080B400AF034B4FF480621A6000BFBD4680BC704700E100E080B400AF034B4FF480621A6000BFBD4680BC704780E100E080B582B030
:401AC00000AF786000F03CF8786800F009F8072000F018F800F028F800BF0837BD4680BD80B485B000AF7860054B1B68FB60FB6864337A681A6000BF1437BD4680BC704781
:401B000008ED00E080B483B000AF0346FB71054AFB795B01DBB2137000BF0C37BD4680BC704700BF09E400E080B400AF034B4FF400721A6000BFBD4680BC704700E100E07C
:401B400080B400AF034B4FF400721A6000BFBD4680BC704780E100E080B500AF1C4B0F221A701C4B02221A6007210120FFF70AFC19490120FFF7DEFB164B01221A60072147
:401B80000020FFF7FFFB15490020FFF7D3FB00F0E7F8134B00221A70124B00221A70124B00221A70114B00221A70114B00221A70104B00221A7000F097F800F0B3F80E4B5E
:401BC00000221A700D4B20221A7000BF80BD00BF8565004080E100E0C11D0000951E00002C84FF1F7884FF1F7684FF1F7484FF1F7584FF1F7784FF1F8664004086650040C3
:401C000080B582B000AF01F0DEFF0346FB71124A114B1B78DBB243F02003DBB213700F4A0E4B1B78DBB243F01003DBB213700C4A0B4B1B78DBB243F01003DBB21370FB790F
:401C4000184601F0C4FF00F01FF800F029F800BF0837BD4680BD00BF95650040966400409665004080B500AF064B1B78002B04D1FFF772FF034B01221A70FFF7C1FF00BFEF
:401C800080BD00BFD681FF1F80B400AF034B02221A6000BFBD4680BC704700BF00E100E080B400AF034B01221A6000BFBD4680BC704700BF00E100E080B400AF034B022257
:401CC0001A6000BFBD4680BC704700BF80E100E080B400AF034B01221A6000BFBD4680BC704700BF80E100E080B582B000AFFFF7E3FF0A4B1B78DAB2094B1B78DBB203F069
:401D00000903DBB21343FB71054B00221A70FFF7BBFFFB7918460837BD4680BD666400405084FF1F80B582B000AFFFF7D1FF0A4B1B78DAB2094B1B78DBB203F04003DBB2C8
:401D40001343FB71054B00221A70FFF7A9FFFB7918460837BD4680BD666500407984FF1F80B582B000AF01E0124B1B78124B1B78DBB203F02003002BF6D101F024FF0346C7
:401D8000FB710E4A0D4B1B78DBB243F00103DBB213700A4A094B1B78DBB223F00103DBB21370FB79184601F012FF00BF0837BD4680BD00BF566400406665004096640040A1
:401DC00080B483B000AF35E02A4B1B78DAB22A4B1B78DBB203F00903DBB21343FB71264AFB791370244B1B78DBB203F00403002B29D0224B1B78DBB2002B0FD1204B1B7897
:401E0000DBB20133DAB21E4B1A701D4B1B78DBB21F2B06D91A4B00221A7002E0174B00221A70184B164A1278D2B21146164A525CD2B21A70124B1B78DAB2144B1B78DBB271
:401E40009A42C1D100E000BF0D4B1B78DAB20F4B1B78DBB29A4207D10D4A0D4B1B78DBB223F00403DBB2137000BF0C37BD4680BC704700BF666400405084FF1F7484FF1FEE
:401E80007584FF1F466400403084FF1F7784FF1F8664004080B483B000AF2E4B1B78DAB22D4B1B78DBB203F04003DBB21343FB71294AFB79137040E0284B1B78BB71284B12
:401EC0001B78DBB20133DAB2254B1A70244B1B78DBB21F2B02D9224B00221A70204B1B78DAB2204B1B78DBB29A4211D11D4B1B78DBB20133DAB21B4B1A701A4B1B78DBB2AB
:401F00001F2B02D9174B00221A70174B01221A70134B1B78DBB21946144ABB7953540D4B1B78DAB20C4B1B78DBB203F04003DBB21343FB71084AFB791370074B1B78DBB21B
:401F400003F02003002BB7D100BF0C37BD4680BC704700BF666500407984FF1F566400407684FF1F7884FF1F2C84FF1F5484FF1F80B500AF1C4B07221A701C4B08221A60C2
:401F80001B490320FFF7D6F907210320FFF7FAF9164B04221A6017490220FFF7CBF907210220FFF7EFF900F023FA134B00221A70124B00221A70124B00221A70114B002295
:401FC0001A70114B00221A70104B00221A7000F09BF800F0B7F80E4B00221A700D4B08221A7000BF80BD00BF8364004080E100E051240000252500007D84FF1F7C84FF1FF6
:402000007F84FF1F7E84FF1F8084FF1F8284FF1F826400408465004080B582B000AF01F0D2FD0346FB71134A124B1B78DBB243F02003DBB21370104A0F4B1B78DBB243F0F8
:402040001003DBB213700D4A0C4B1B78DBB243F01003DBB21370FB79184601F0B8FD084B08221A60064B04221A6000BF0837BD4680BD00BF93640040926400409465004016
:4020800000E100E080B500AF064B1B78002B04D1FFF76EFF034B01221A70FFF7BDFF00BF80BD00BFD781FF1F80B400AF034B08221A6000BFBD4680BC704700BF00E100E04C
:4020C00080B400AF034B04221A6000BFBD4680BC704700BF00E100E080B400AF034B08221A6000BFBD4680BC704700BF80E100E080B400AF034B04221A6000BFBD4680BC81
:40210000704700BF80E100E080B582B000AFFFF7E3FF0A4B1B78DAB2094B1B78DBB203F06103DBB21343FB71054B00221A70FFF7BBFFFB7918460837BD4680BD6264004069
:402140008184FF1F80B582B000AFFFF7D1FF0A4B1B78DAB2094B1B78DBB203F06103DBB21343FB71054B00221A70FFF7A9FFFB7918460837BD4680BD64650040C484FF1F78
:4021800080B584B000AF0346FB71394B1B78FB73FB7B002B02D11F23FB7302E0FB7B013BFB73344B1B78DBB2FA7B9A42EDD0FFF793FF314B1B78DAB2304B1B78DBB203F049
:4021C0006103DBB21343BB732C4ABB7B1370284B1B78DAB2274B1B78DBB29A420AD1274B1B78DBB203F00203002B03D0244AFB79137037E01F4B1B78DBB20133DAB21D4BAA
:402200001A701C4B1B78DBB21F2B02D9194B00221A70184B1B78DAB2154B1B78DBB29A4211D1134B1B78DBB20133DAB2104B1A700F4B1B78DBB21F2B02D90D4B00221A70D2
:40224000104B01221A700B4B1B78DBB219460E4AFB7953540D4A0D4B1B78DBB243F00203DBB21370FFF720FF00BF1037BD4680BD8084FF1F8284FF1F626400408184FF1F2D
:40228000446400407E84FF1FA484FF1F8264004080B483B000AF0346FB71044AFB79137000BF0C37BD4680BC704700BF0464004080B582B000AFFFF71BFF174B1B78DAB294
:4022C000164B1B78DBB29A4217D0154B1B78DBB2002B0FD1104B1B78DBB20133DAB20E4B1A700D4B1B78DBB21F2B06D90A4B00221A7002E00A4B00221A70074B1B78DBB2FA
:402300001A46084B9B5CFB71FFF7DAFEFB7918460837BD4680BD00BF7C84FF1F7F84FF1F7D84FF1F8484FF1F80B500AF01E00C4B1B780C4B1B78DBB203F00803002BF6D10F
:40234000FFF7D6FE084B00221A70084B00221A70074B00221A70FFF7B3FE00BF80BD00BF54640040646500407C84FF1F7F84FF1F7D84FF1F80B582B000AF01F024FC034666
:40238000FB71164A154B1B78DBB243F00303DBB21370124A114B1B78DBB223F00303DBB21370FB79184601F012FCFFF795FE0C4B00221A700B4B00221A700B4B00221A7026
:4023C0000A4A0A4B1B78DBB223F00203DBB21370FFF76AFE00BF0837BD4680BD946400408084FF1F8284FF1F7E84FF1F8264004080B582B000AF01E0124B1B78124B1B78B5
:40240000DBB203F00803002BF6D101F0DCFB0346FB710E4A0D4B1B78DBB243F00303DBB213700A4A094B1B78DBB223F00303DBB21370FB79184601F0CAFB00BF0837BD460F
:4024400080BD00BF54640040646500409464004080B483B000AF35E02A4B1B78DAB22A4B1B78DBB203F06103DBB21343FB71264AFB791370244B1B78DBB203F00203002B14
:4024800029D0224B1B78DBB2002B0FD1204B1B78DBB20133DAB21E4B1A701D4B1B78DBB21F2B06D91A4B00221A7002E0174B00221A70184B164A1278D2B21146164A525C65
:4024C000D2B21A70124B1B78DAB2144B1B78DBB29A42C1D100E000BF0D4B1B78DAB20F4B1B78DBB29A4207D10D4A0D4B1B78DBB223F00203DBB2137000BF0C37BD4680BCE9
:40250000704700BF626400408184FF1F7E84FF1F8084FF1F44640040A484FF1F8284FF1F8264004080B483B000AF2E4B1B78DAB22D4B1B78DBB203F06103DBB21343FB7156
:40254000294AFB79137040E0284B1B78BB71284B1B78DBB20133DAB2254B1A70244B1B78DBB21F2B02D9224B00221A70204B1B78DAB2204B1B78DBB29A4211D11D4B1B78B7
:40258000DBB20133DAB21B4B1A701A4B1B78DBB21F2B02D9174B00221A70174B01221A70134B1B78DBB21946144ABB7953540D4B1B78DAB20C4B1B78DBB203F06103DBB22F
:4025C0001343FB71084AFB791370074B1B78DBB203F00803002BB7D100BF0C37BD4680BC704700BF64650040C484FF1F546400407F84FF1F7C84FF1F7D84FF1F8484FF1F0B
:4026000080B582B000AF786000F03CF8786800F009F8072000F018F800F028F800BF0837BD4680BD80B485B000AF7860054B1B68FB60FB6854337A681A6000BF1437BD46D1
:4026400080BC704708ED00E080B483B000AF0346FB71054AFB795B01DBB2137000BF0C37BD4680BC704700BF05E400E080B400AF034B20221A6000BFBD4680BC704700BFB7
:4026800000E100E080B400AF034B20221A6000BFBD4680BC704700BF80E100E080B582B000AF786000F03CF8786800F009F8072000F018F800F028F800BF0837BD4680BD5F
:4026C00080B485B000AF7860054B1B68FB60FB6858337A681A6000BF1437BD4680BC704708ED00E080B483B000AF0346FB71054AFB795B01DBB2137000BF0C37BD4680BC62
:40270000704700BF06E400E080B400AF034B40221A6000BFBD4680BC704700BF00E100E080B400AF034B40221A6000BFBD4680BC704700BF80E100E080B582B000AF4FF6FA
:40274000FF7000F05DF84FF6FF7000F075F801F03AFA0346FB710A4A094B1B78DBB243F01003DBB21370FB79184601F030FA00F073F8002000F028F800BF0837BD4680BDE6
:402780009765004080B400AF054A054B1B78DBB263F07F03DBB2137000BFBD4680BC70477064004080B500AF064B1B78002B04D1FFF7C2FF034B01221A70FFF7E3FF00BF7C
:4027C00080BD00BFD881FF1F80B483B000AF0346FB71044AFB79137000BF0C37BD4680BC704700BF8765004080B400AF034B1B78DBB21846BD4680BC704700BF6765004003
:4028000080B483B000AF0346FB80044AFB88138000BF0C37BD4680BC704700BF4C6A004080B400AF034B1B889BB21846BD4680BC704700BF8C6A004080B483B000AF0346E4
:40284000FB80044AFB88138000BF0C37BD4680BC704700BF0C6A004080B500AF01E0FFF7DFFFFFF7C1FF034603F00803002BF6D100BF80BD80B582B000AF786000F03CF876
:40288000786800F009F8072000F018F800F028F800BF0837BD4680BD80B485B000AF7860054B1B68FB60FB688C337A681A6000BF1437BD4680BC704708ED00E080B483B0FA
:4028C00000AF0346FB71054AFB795B01DBB2137000BF0C37BD4680BC704700BF13E400E080B400AF034B4FF400221A6000BFBD4680BC704700E100E080B400AF034B4FF4BD
:4029000000221A6000BFBD4680BC704780E100E080B500AF224A224B1B78DBB203F00103DBB213701F4A1F4B1B78DBB223F00303DBB213701C4A1C4B1B78DBB223F03003D2
:40294000DBB21370184A184B1B78DBB243F03003DBB21370144A144B1B78DBB223F00F03DBB21370104A104B1B78DBB243F00F03DBB213700D4A0D4B1B78DBB243F00103AA
:40298000DBB213704FF6FF7000F058F84FF6FF7000F066F8002000F041F800BF80BD00BF004F0040024F00400B4F0040014F004080B400AF0D4A0D4B1B78DBB243F00103DA
:4029C000DBB213700A4A0A4B1B78DBB243F00103DBB21370074A074B1B78DBB243F00103DBB2137000BFBD4680BC7047A3430040B3430040004F004080B500AF064B1B7845
:402A0000002B04D1FFF784FF034B01221A70FFF7CFFF00BF80BD00BFD981FF1F80B483B000AF0346FB71044AFB79137000BF0C37BD4680BC704700BF034F004080B485B069
:402A400000AF0346FB80FB88FB81044AFB89138000BF1437BD4680BC704700BF044F004080B483B000AF0346FB80044AFB88138000BF0C37BD4680BC704700BF064F0040A3
:402A800080B582B000AFFF2000F05CF8FF2000F075F801F098F80346FB710A4A094B1B78DBB243F01003DBB21370FB79184601F08EF800F083F8002000F028F800BF0837EB
:402AC000BD4680BD9965004080B400AF054A054B1B78DBB263F07F03DBB2137000BFBD4680BC70477965004080B500AF064B1B78002B04D1FFF7C4FF034B01221A70FFF78C
:402B0000E3FF00BF80BD00BFDA81FF1F80B483B000AF0346FB71044AFB79137000BF0C37BD4680BC704700BF8965004080B400AF034B1B78DBB21846BD4680BC704700BF26
:402B40006965004080B483B000AF0346FB71044AFB79137000BF0C37BD4680BC704700BF2965004080B400AF034B1B78DBB21846BD4680BC704700BF4965004080B483B0F9
:402B800000AF0346FB71044AFB79137000BF0C37BD4680BC704700BF0965004080B400AF044B1B78044B1B78DBB21846BD4680BC704700BF096500404965004080B500AF40
:402BC00001E0FFF7CFFFFFF7B1FF034603F00803002BF6D100BF80BD80B582B000AF786000F03CF8786800F009F8072000F018F800F028F800BF0837BD4680BD80B485B094
:402C000000AF7860054B1B68FB60FB687C337A681A6000BF1437BD4680BC704708ED00E080B483B000AF0346FB71054AFB795B01DBB2137000BF0C37BD4680BC704700BFEB
:402C40000FE400E080B400AF034B4FF400421A6000BFBD4680BC704700E100E080B400AF034B4FF400421A6000BFBD4680BC704780E100E080B582B000AF786000F03CF8A3
:402C8000786800F009F8072000F018F800F028F800BF0837BD4680BD80B485B000AF7860054B1B68FB60FB6880337A681A6000BF1437BD4680BC704708ED00E080B483B002
:402CC00000AF0346FB71054AFB795B01DBB2137000BF0C37BD4680BC704700BF10E400E080B400AF034B4FF480321A6000BFBD4680BC704700E100E080B400AF034B4FF42C
:402D000080321A6000BFBD4680BC704780E100E080B582B000AF786000F03CF8786800F009F8072000F018F800F028F800BF0837BD4680BD80B485B000AF7860054B1B6856
:402D4000FB60FB6850337A681A6000BF1437BD4680BC704708ED00E080B483B000AF0346FB71054AFB795B01DBB2137000BF0C37BD4680BC704700BF04E400E080B400AF85
:402D8000034B10221A6000BFBD4680BC704700BF00E100E080B400AF034B10221A6000BFBD4680BC704700BF80E100E080B582B000AF1C4B1B78DBB223F00703FB71194AC9
:402DC000FB7943F00303DBB21370164B1B78DBB223F00303FB71134AFB79137000F0B0F8802000F08DF8002000F05EF8002000F03FF800F04DF8802000F092F800F0E3FE42
:402E00000346BB71084A084B1B78DBB243F01003DBB21370BB79184600F0D9FE00BF0837BD4680BD7B6400409864004080B400AF054A054B1B78DBB263F07F03DBB2137089
:402E400000BFBD4680BC70477B64004080B500AF064B1B78002B04D1FFF7A8FF034B01221A70FFF7E3FF00BF80BD00BFDB81FF1F80B483B000AF0346FB71044AFB79137001
:402E800000BF0C37BD4680BC704700BF8864004080B400AF034B1B78DBB21846BD4680BC704700BF6864004080B483B000AF0346FB71044AFB79137000BF0C37BD4680BC6E
:402EC000704700BF0864004080B400AF044B1B78044B1B78DBB21846BD4680BC704700BF086400404864004080B400AF034B1B78DBB21846BD4680BC704700BF4864004081
:402F000080B483B000AF0346FB71044AFB79137000BF0C37BD4680BC704700BF2864004080B483B000AF0346FB71044AFB79137000BF0C37BD4680BC704700BF386400405B
:402F400080B500AF01E0FFF7CFFFFFF7A1FF034603F04003002BF6D100BF80BD80B500AF224A224B1B78DBB203F00103DBB213701F4A1F4B1B78DBB223F00303DBB21370C5
:402F80001C4A1C4B1B78DBB223F03003DBB21370184A184B1B78DBB243F03003DBB21370144A144B1B78DBB223F00F03DBB21370104A104B1B78DBB243F00F03DBB2137037
:402FC0000D4A0D4B1B78DBB243F00103DBB213704FF6FF7000F058F84FF6FF7000F066F8002000F041F800BF80BD00BF0C4F00400E4F0040174F00400D4F004080B400AF64
:403000000D4A0D4B1B78DBB243F00203DBB213700A4A0A4B1B78DBB243F00203DBB21370074A074B1B78DBB243F00103DBB2137000BFBD4680BC7047A3430040B34300404D
:403040000C4F004080B500AF064B1B78002B04D1FFF784FF034B01221A70FFF7CFFF00BF80BD00BFDC81FF1F80B483B000AF0346FB71044AFB79137000BF0C37BD4680BC2E
:40308000704700BF0F4F004080B485B000AF0346FB80FB88FB81044AFB89138000BF1437BD4680BC704700BF104F004080B483B000AF0346FB80044AFB88138000BF0C371E
:4030C000BD4680BC704700BF124F004080B582B000AF786000F03CF8786800F009F8072000F018F800F028F800BF0837BD4680BD80B485B000AF7860054B1B68FB60FB68A1
:403100005C337A681A6000BF1437BD4680BC704708ED00E080B483B000AF0346FB71054AFB795B01DBB2137000BF0C37BD4680BC704700BF07E400E080B400AF034B802280
:403140001A6000BFBD4680BC704700BF00E100E080B400AF034B80221A6000BFBD4680BC704700BF80E100E080B582B000AF786000F03CF8786800F009F8072000F018F894
:4031800000F028F800BF0837BD4680BD80B485B000AF7860054B1B68FB60FB686C337A681A6000BF1437BD4680BC704708ED00E080B483B000AF0346FB71054AFB795B0186
:4031C000DBB2137000BF0C37BD4680BC704700BF0BE400E080B400AF034B4FF400621A6000BFBD4680BC704700E100E080B400AF034B4FF400621A6000BFBD4680BC70476E
:4032000080E100E080B582B000AF1C4B1B78DBB223F00703FB71194AFB7943F00303DBB21370164B1B78DBB223F00303FB71134AFB79137000F0B0F8802000F08DF80020E0
:4032400000F05EF8002000F03FF800F04DF8802000F092F800F0B7FC0346BB71084A084B1B78DBB243F01003DBB21370BB79184600F0ADFC00BF0837BD4680BD78640040BA
:403280009B64004080B400AF054A054B1B78DBB263F07F03DBB2137000BFBD4680BC70477864004080B500AF064B1B78002B04D1FFF7A8FF034B01221A70FFF7E3FF00BF80
:4032C00080BD00BFDD81FF1F80B483B000AF0346FB71044AFB79137000BF0C37BD4680BC704700BF8B64004080B400AF034B1B78DBB21846BD4680BC704700BF6B640040ED
:4033000080B483B000AF0346FB71044AFB79137000BF0C37BD4680BC704700BF0B64004080B400AF044B1B78044B1B78DBB21846BD4680BC704700BF0B6400404B64004032
:4033400080B400AF034B1B78DBB21846BD4680BC704700BF4B64004080B483B000AF0346FB71044AFB79137000BF0C37BD4680BC704700BF2B64004080B483B000AF034605
:40338000FB71044AFB79137000BF0C37BD4680BC704700BF3B64004080B500AF01E0FFF7CFFFFFF7A1FF034603F04003002BF6D100BF80BD80B500AF224A224B1B78DBB25D
:4033C00003F00103DBB213701F4A1F4B1B78DBB223F00303DBB213701C4A1C4B1B78DBB223F03003DBB21370184A184B1B78DBB243F03003DBB21370144A144B1B78DBB22F
:4034000023F00F03DBB21370104A104B1B78DBB243F00F03DBB213700D4A0D4B1B78DBB243F00103DBB213704FF6FF7000F058F84FF6FF7000F066F8002000F041F800BF19
:4034400080BD00BF184F00401A4F0040234F0040194F004080B400AF0D4A0D4B1B78DBB243F00403DBB213700A4A0A4B1B78DBB243F00403DBB21370074A074B1B78DBB2D4
:4034800043F00103DBB2137000BFBD4680BC7047A3430040B3430040184F004080B500AF064B1B78002B04D1FFF784FF034B01221A70FFF7CFFF00BF80BD00BFDE81FF1FD5
:4034C00080B483B000AF0346FB71044AFB79137000BF0C37BD4680BC704700BF1B4F004080B485B000AF0346FB80FB88FB81044AFB89138000BF1437BD4680BC704700BF5C
:403500001C4F004080B483B000AF0346FB80044AFB88138000BF0C37BD4680BC704700BF1E4F004080B582B000AF786000F03CF8786800F009F8072000F018F800F028F824
:4035400000BF0837BD4680BD80B485B000AF7860054B1B68FB60FB6860337A681A6000BF1437BD4680BC704708ED00E080B483B000AF0346FB71054AFB795B01DBB21370CE
:4035800000BF0C37BD4680BC704700BF08E400E080B400AF034B4FF480721A6000BFBD4680BC704700E100E080B400AF034B4FF480721A6000BFBD4680BC704780E100E05C
:4035C00080B582B000AF786000F03CF8786800F009F8072000F018F800F028F800BF0837BD4680BD80B485B000AF7860054B1B68FB60FB6870337A681A6000BF1437BD46E6
:4036000080BC704708ED00E080B483B000AF0346FB71054AFB795B01DBB2137000BF0C37BD4680BC704700BF0CE400E080B400AF034B4FF480521A6000BFBD4680BC7047CC
:4036400000E100E080B400AF034B4FF480521A6000BFBD4680BC704780E100E080B400AF00BFBD4680BC704780B582B000AF0F2000F06AF800F05AF800F0A5FA0346FB711E
:40368000074A074B1B78DBB243F01003DBB21370FB79184600F09BFA00BF0837BD4680BD9D64004080B500AF00F04AF94FF4004000F074F9064B1B78002B04D1FFF7CEFF7D
:4036C000034B01221A70FFF7CFFF00BF80BD00BFDF81FF1F80B582B000AF00F06FF90346FB80FB88A3F500439BB2BB80B7F9043018460837BD4680BD80B584B000AF034698
:40370000FB80B7F90630002B04DBFB88A3F50043FB8103E0FB88A3F50043FB81FB89184600F03CF900BF1037BD4680BD80B400AF044B1B78DBB203F00F03DBB21846BD46F5
:4037400080BC70476D64004080B483B000AF0346FB71044AFB79137000BF0C37BD4680BC704700BF8D64004080B582B000AF786000F03CF8786800F009F8072000F018F843
:4037800000F028F800BF0837BD4680BD80B485B000AF7860054B1B68FB60FB6874337A681A6000BF1437BD4680BC704708ED00E080B483B000AF0346FB71054AFB795B0178
:4037C000DBB2137000BF0C37BD4680BC704700BF0DE400E080B400AF034B4FF400521A6000BFBD4680BC704700E100E080B400AF034B4FF400521A6000BFBD4680BC704786
:4038000080E100E080B582B000AF786000F03CF8786800F009F8072000F018F800F028F800BF0837BD4680BD80B485B000AF7860054B1B68FB60FB6878337A681A6000BFA8
:403840001437BD4680BC704708ED00E080B483B000AF0346FB71054AFB795B01DBB2137000BF0C37BD4680BC704700BF0EE400E080B400AF034B4FF480421A6000BFBD463D
:4038800080BC704700E100E080B400AF034B4FF480421A6000BFBD4680BC704780E100E080B582B000AF1C4B1B78DBB223F00703FB71194AFB791370174B1B78DBB223F099
:4038C0000303FB71144AFB79137000F0B3F84FF4004000F08FF84FF4004000F05FF8002000F040F800F04EF84FF4004000F092F800F069F90346BB71084A084B1B78DBB29B
:4039000043F01003DBB21370BB79184600F05FF900BF0837BD4680BD7D6400409C64004080B400AF054A054B1B78DBB263F07F03DBB2137000BFBD4680BC70477D6400405B
:4039400080B500AF064B1B78002B04D1FFF7A8FF034B01221A70FFF7E3FF00BF80BD00BFE081FF1F80B483B000AF0346FB71044AFB79137000BF0C37BD4680BC704700BF0E
:403980008C64004080B400AF034B1B78DBB21846BD4680BC704700BF6C64004080B483B000AF0346FB80044AFB88138000BF0C37BD4680BC704700BF1868004080B400AFCB
:4039C000044B1B78044B1B889BB21846BD4680BC704700BF0C6400409868004080B400AF034B1B889BB21846BD4680BC704700BF9868004080B483B000AF0346FB80044A07
:403A0000FB88138000BF0C37BD4680BC704700BF5868004080B483B000AF0346FB80044AFB88138000BF0C37BD4680BC704700BF7868004080B500AF01E0FFF7CFFFFFF725
:403A4000A1FF034603F04003002BF6D100BF80BD80B582B000AF786000F03CF8786800F009F8072000F018F800F028F800BF0837BD4680BD80B485B000AF7860054B1B681E
:403A8000FB60FB6884337A681A6000BF1437BD4680BC704708ED00E080B483B000AF0346FB71054AFB795B01DBB2137000BF0C37BD4680BC704700BF11E400E080B400AFF7
:403AC000034B4FF400321A6000BFBD4680BC704700E100E080B400AF034B4FF400321A6000BFBD4680BC704780E100E080B582B000AF786000F03CF8786800F009F80720F3
:403B000000F018F800F028F800BF0837BD4680BD80B485B000AF7860054B1B68FB60FB6888337A681A6000BF1437BD4680BC704708ED00E080B483B000AF0346FB71054AB0
:403B4000FB795B01DBB2137000BF0C37BD4680BC704700BF12E400E080B400AF034B4FF480221A6000BFBD4680BC704700E100E080B400AF034B4FF480221A6000BFBD4680
:403B800080BC704780E100E0142816D902B4012114381049097811F0C001890904B40E4A515C04BC00BF00BF00BF8841FDD500BF00BF02BC704700BF00BF70F10400FCD558
:403BC00070470B050709EFF3108072B6704780F31088704700480040C23B0000014B1868704700BF4081FF1F0E4B70B51E460E4C0025E41AA410A54204D056F825309847E5
:403C00000135F8E702F080FA084B094C1E46E41AA4100025A54204D056F8253098470135F8E770BD1461000014610000146100001C61000010B5431E0A44914204D011F8A1
:403C4000014B03F8014FF8E710BD03460244934202D003F8011BFAE770472DE9F04788B0149F002B1E461299B8BF03F1004327F02007B6BF1E4600232D23462F1446109DF6
:403C8000DDF84CA00B7003D0452F03D1013501E0032300E0022307AA049206AA03928DE828042246334600F0B7FB472F804602D1119BDB0728D5462F08EB050911D198F839
:403CC0000030302B0AD1002200232046314602F0BBF818B9C5F10105CAF80050DAF800309944002200232046314602F0ADF808B9302202E0CDF81C9006E0079B994503D9B8
:403D0000591C07911A70F8E74046079B159AC8EB0303136008B0BDE8F087034673B50029B8BF494203F8022BB4BF2D222B22092942701ADD0DF1070216460A2591FBF5F481
:403D400005FB1411092C01F1300102F8011D2146F4DC3031541E02F8011CB4421A460AD214F8012B03F8012BF7E71A463024214402F8024B5970101A02B070BD2DE9F04F97
:403D800091B00C46DDF8688016461F46054601F0DBF803681846099300F0AAFA00230E93D8F800300A90073323F0070303F1080294F81890D4F800B0C8F80020D3E90023C8
:403DC000C4E91223D4F84CA0D4F848802AF000430B934FF0FF32A74B40460B9902F066F8A0B94FF0FF32A34B40460B9902F040F860B9002200234046514602F02FF810B15E
:403E00002D2384F843309C4B9C4A0AE0424653464046514602F04AF8002800F09281984B984AB9F1470F8CBF90469846032323612BF0040323604FF0000A3DE0B9F1670F56
:403E400000F08A81B9F1470F00F0868123600193636800210DF13302059002920093424653460691CDF81090CDF80CE02846FFF7F4FE09F0DF03472B804600F08481B9F188
:403E8000650F0D9900F28D8101394A4604F150000D91FFF742FF0E9A82468318012A236100F37C812268D10700F178819DF8333013B12D2384F84330009733460FAA2146E3
:403EC000284600F09FF9013002D14FF0FF3096E123685A0501D4236965E0B9F1650F40F2D580D4E912010022002301F0ADFF78B30123654A31462846B8470130E5D00E9B8B
:403F00000D9A9A420BDB2368D80708D423689B0740F111814FF0000804F1190906E10A9B099A31462846B8470130CED04FF0000804F11A090E9B013B9845E7DA01234A460C
:403F400031462846B8470130BFD008F10108F1E70D9B002B29DC01234B4A31462846B8470130B2D00D9B23B90E9B13B92368D907CCD50A9B099A31462846B8470130A4D0C5
:403F80004FF0000904F11A0A0D9B5B42994509DA0123524631462846B847013095D009F10109F1E70E9B4246A7E00E9AA36D9A42A8BF1A46002A914606DC4FF0000A29EA36
:403FC000E97904F11A0B11E01346314642462846B8470130F1D178E701235A4631462846B84701303FF471AF0AF1010AA36DC9EB03029245F0DB08EB03090D9A0E9B9A4275
:404000000FDB2368DA070CD40E9B0D9A9844C9EB08089B1A9845A8BF9846B8F1000F08DC0FE00A9B099A31462846B8470130EBD14BE743464A4631462846B84701303FF44C
:4040400044AF4FF0000928EAE87804F11A0A09E00123524631462846B84701303FF435AF09F101090D9A0E9B9B1AC8EB03039945EEDB4BE7FFFFEF7FDE5F0000E25F000024
:40408000E65F0000EA5F0000EE5F00000E9A012A01DCDB0738D50123424631462846B84701303FF412AF0A9B099A31462846B84701303FF40AAFD4E912010022002301F082
:4040C000C3FE20B14FF0000804F11A090EE00E9B08F10102013B19E001234A4631462846B84701303FF4F1AE08F101080E9B013B9845F1DB534604F1500231462846B84718
:4041000001307FF403AFE0E64246012331462846B8470130EED1D8E601234A4631462846B84701303FF4D1AE08F10108E3680F9A9B1A9845F0DBE0680F9B9842B8BF1846B6
:404140005DE062680EA8531C0DF1340E4BF480637FF474AE062201E012B90122626075E6002106910DF133018DE80C00236005904246CDF81090CDF80CE00291534628464D
:40418000FFF76BFD80460D9BD81C02DB626893421DDDA9F102095FFA89F970E60133236184E6B9F1660F14D10029636807DD216113B92268D2071DD501330B4419E013B90A
:4041C0002268D00701D5023313E0012311E04FF067090D9B0E9A934205DB22682361D10708D5013305E0002BD4BFC3F102030123134423610D9B4FF0000AA36556E611B04F
:40420000BDE8F08F2DE9F04791461F460A698B6806469342B8BF1346C9F8003091F843200C46DDF8208012B10133C9F800302368990642BFD9F800300233C9F8003025680F
:4042400015F0060510D104F1190A07E00123524639463046C04701301AD00135E368D9F800209B1A9D42F1DB94F843302268003318BF012392060FD5E118302081F8430071
:404280005A1C94F845102244023382F8431003E04FF0FF30BDE8F08704F1430239463046C0470130F4D02268D9F80050E36802F00602042A08BF5D1B2269A3680CBF25EADA
:4042C000E57500259342C4BF9B1AED184FF000091A344D4509D00123224639463046C0470130D5D009F10109F3E70020BDE8F087034613F8012B002AFBD1181A013870471C
:404300002DE9F74F03690C6980469C427FDC013C01F114074FEA840E00F1140606EB0E0357F82450019356F824300135B3FBF5F507EB0E09C5B34FF0000A3846B446D346FD
:4043400050F8043B9AB205FB02A21B0C4FEA124A05FB03A392B2C2EB0B0BBCF800204FEA134A5A441FFA83FBDCF800308145CBEB134303EB224392B242EA03424FEA234B39
:404380004CF8042BDCD256F80E306BB9019B043B9E421A4602D3C8F8104005E01268043B002AF8D1013CF3E7404600F0E6FF00282BDB304601354FF0000E57F8042B036819
:4043C00091B2C1EB0E0E120C99B27144C2EB134303EB214389B24FEA234EB94541EA034340F8043BE9D256F8242006EB840362B9043B9E421A4602D3C8F8104005E01268D1
:40440000043B002AF8D1013CF3E7284600E0002003B0BDE8F08F00002DE9F04F456A95B08246219CCDE9022345B9102000F090FDCAF82400456085600560C560DAF824307A
:40444000196859B15A68012393404A608B60504600F0BBFDDAF8243000221A60039BA04A002BBDBF01232360039B0023BCBF23F000430393DDF80C80A8BF236028F00043BF
:404480001B0D1B0593421DD142F20F73209A1360029B43B9934A944BC8F31300002814BF1846104600E09048229B002B00F04685C37813B100F1080300E0C31C229A1360F8
:4044C00000F03CBDDDE90245002200232046294601F0BAFC074658B1209A01231360229B002B00F01E8581481860013800F026BD12AB019313AB009322462B46504600F095
:40450000B7FFC8F30A56049056B1C5F3130343F07F51204641F44011A6F2FF3611971DE0139B129E1E4406F23243202B0ADD029A06F21240C3F1400322FA00F008FA03F3A0
:40454000184304E0C3F12000029B03FA00F001F09DF90123A1F1F871013E11930022644B01F056F858A3D3E9002301F005FA58A3D3E9002301F04EF8044630460D4601F026
:4045800095F955A3D3E9002301F0F6F902460B462046294601F03EF804460D4601F09CFC0022834600232046294601F057FC58B1584601F07BF902460B462046294601F069
:4045C00043FC08B90BF1FF3BBBF1160F0DD8DDE90223484901EBCB01D1E9000101F05CFC30B10BF1FF3B002300E00123109300E01090129B9E1B731E079343BFC3F10008E7
:40460000002307934FF00008BBF1000F06DB079BCDF82CB05B440793002705E00023CBEB0808CBF100070B931E9B092B28D8052BC4BF043B1E931E9BC8BF0025A3F102037A
:40464000D8BF0125032B20D8DFE803F0060E0204012302E0012308E000230A931F9B002B1DDD9946059321E000230A931F9B0BEB030909F10103012B0593B8BF012315E08C
:40468000012500231E930A9501E001230A934FF0FF390022CDF8149012231F9206E04FF001094B46CDF81490CDF87C90DAF8244000226260042101F114029A421CD86268FC
:4046C000490001326260F6E761436F63A787D23FB3C8608B288AC63FFB799F501344D33F0000F07FF05F0000F95F0000EF5F00000000F83F086000006168504600F030FC83
:40470000DAF8243020601B680693059B0E2B00F25B81002D00F05881DDE90234BBF1000FCDE90E3430DD9F4A0BF00F034FEA2B1502EBC303E80618CBCDE908340CD5DDE9D2
:404740000E01994B05F00F05D3E9082301F03EFA0324CDE9020100E00224934E6DB1E90708D5DDE90801D6E9002301F005F9CDE9080101346D100836F0E7DDE90823DDE99E
:40478000020101F023FA20E0CBF1000505B3DDE90E01844B05F00F0203EBC203D3E9002301F0EAF8CDE902017F4E2D110023022455B1EA0705D5D6E9002301F0DDF80134A5
:4047C00001236D100836F3E71BB1CDE9020100E00224109BE3B1DDE902560022734B2846314601F03BFB98B1059B8BB1B9F1000F40F3E6800BF1FF330893314600226C4B9C
:40480000284601F0B9F80134CDE902014E4602E0059ECDF820B0204601F048F8DDE9022301F0AAF8634B002200F0F4FEA1F1507304460C931D46D6B9DDE9020100225E4B41
:4048400000F0E6FE22460C9BCDE9020101F024FB002840F03F820C99224601F10043DDE9020101F0FBFA002840F02B82A8E00A9A4C4B711E002A49D003EBC103D3E9002357
:4048800000204E4901F0A2F922462B4600F0C0FECDE90C01069CDDE9020101F01DFB054601F004F802460B46DDE9020100F0B0FEDDE90C23303504F8015BCDE9020101F063
:4048C000CDFA002840F01D83DDE902230020374900F09EFEDDE90C2301F0C0FA002840F0D180069BE31AB3426ADADDE90C0100222F4B01F041F80022CDE90C01DDE902017B
:404900002B4B01F039F8CDE90201C4E703EBC1012246D1E900012B4601F02EF8069BCDE90C011D469C19DDE9020101F0D5FA064600F0BCFF02460B46DDE9020100F068FE6C
:40494000303605F8016BAC42CDE902014FF0000222D11A4BDDE90C0100F05CFE02460B46DDE9020101F098FA002840F08B80DDE90C230020114900F04BFE02460B46DDE9BC
:40498000020101F06BFAD8B114F8013C621E302B40F0B7821446F7E7054B00F0EDFFCDE90201C0E708600000E06000000000F03F0000244000001C40000014400000E03FBA
:4049C000DDE90E34CDE90234139B002B7CDBBBF10E0F79DCAB4B03EBCB03D3E900671F9B002B14DA059B002B11DC40F06C810022A54B3046394600F0BFFFDDE9022301F067
:404A000041FA059D2E46002840F05F8165E1069CDDE9028932463B464046494601F0D6F801F05AFA054600F041FF32463B4600F0A3FF0B4602464946404600F0E9FD05F122
:404A4000300E069B04F801EBC3EB040E059B73452DD102460B4600F0DDFD8046894602460B463046394601F0F9F978B942464B463046394601F0E8F9002800F04482EB070F
:404A800004D440E2DDF820B000E01C4614F8012C631E392A07D1069A9A42F6D1069930220BF1010B0A701A7801321A702BE20022764B00F061FF002200238046894601F010
:404AC000C3F90028A6D01EE20A9A002A2BD01E9A012A0ADC119A12B103F2334302E0129BC3F136033D46444613E0059B5D1EAF42BFBF0B9BEA1B9B180B93059BB6BF2F4665
:404B00007D1B0025002BA7BF4446059BC3EB08040023079A01211A4450469844079200F0F3FA064602E03D4644460A9E5CB1079B002B08DDA342A8BF2346079AC3EB080861
:404B4000E41AD31A0793002F1DDD0A9BABB18DB131462A46504600F071FB049A01460646504600F0DAFA04990890504600F02DFA089B04937A1B06D000E03A4604995046CA
:404B800000F05CFB04900121504600F0BDFA0B9B05465BB31A460146504600F04FFB1E9B0546012B18DC029B83B9039BC3F3130373B9039B23F000473F0D3F054FB1079B88
:404BC00008F1010801330793012702E0002700E0029F0B9B73B100E000272B6905EB8303186900F044FAC0F1200004E01E9B012BD9DD0B9F0120079B184410F01F0008D099
:404C0000C0F12003042B02DDC0F11C0002E006D018461C30079B8044034404440793B8F1000F05DD42460499504600F055FB0490079B002B05DD29461A46504600F04CFB60
:404C40000546109B23B32946049800F096FB00281EDA00230A220499504600F0CDF90A9B0BF1FF3B0490002B00F05F81314600230A22504600F0C0F9B9F1000F06463FDCF5
:404C80003BE000BF086000000000144000002440059B002B2BDC1E9B022B28DDDDF81490B9F1000F11D129464B460522504600F0A3F901460546049800F05FFB00280CDC58
:404CC00003E0354600E000252E461F9B069C6FEA030B09E03546DDF820B0069B069A5C1C312313700BF1010B05960026F7E00A9BDDF8149023B9069CB2E01E9B022BCFDC22
:404D0000002C05DD31462246504600F0E5FA06469FB17168504600F023F90446326906F10C01023292000C30FEF784FF01222146504600F0D1FA059000E00596029B069F7A
:404D400003F00103079329460498FFF7D9FA3146044600F13008049800F00FFB059A02902946504600F025FBC36802463BB901460A90049800F001FB0A9A034600E0012347
:404D8000114650460A9300F020F90A9B53B91E9A42B9079A32B9B8F1390F2AD0029B002B1CDC1DE0029A002A04DB1BD11E9ACAB9079ABAB9002B13DD01220499504600F087
:404DC0008BFA2946049000F0D8FA002803DC07D118F0010F04D0B8F1390F0AD004F131087C1C0CE0002B07F101040BDDB8F1390F03D139233B70013756E008F1010887F856
:404E000000806CE0069B2746E31A4B4504F8018C3BD000230A220499504600F0EDF8059B04909E424FF00A024FF000033146504604D100F0E1F80646059084E700F0DCF8C4
:404E4000002306460A220599504600F0D5F8059079E700230A220499504600F0CDF8049029460498FFF74CFA069B00F1300804F8018BE31A4B45ECDB069B0596B9F1010F03
:404E8000ACBF4B4401331F46002601220499504600F022FA2946049000F06FFA002803DC15D118F0010F12D03C4614F8013C621E392B09D1069B934204D10BF1010B312364
:404EC000069A02E01446F0E70133137007E03C4614F8013C621E302B01D11446F8E72946504600F072F8059B6BB12EB19E4203D03146504600F069F80599504600F065F824
:404F000001E0DDF820B00499504600F05EF80023209A23700BF101031360229B1BB11C6001E008480AE0069808E0B9F1000F3FF7E2AE1E9B022B7FF7DEAEB1E615B0BDE881
:404F4000F08F00BFEE5F0000004870474481FF1F024B0146186800F0E7BA00BF4081FF1F70B5456A04460E463DB91020FFF7F0FF6062456085600560C560656AEB6843B118
:404F8000636ADB6853F8260078B1026843F8262017E021220421204600F0B8FA636AE860DB68002BECD1002070BD012101FA06F56A1D9200204600F0A9FA0028F3D04660AD
:404FC000856000230361C36070BD70B5446A06460D463CB91020FFF7BBFF7062446084600460C4603DB1736A6A68DB6853F82210296043F8225070BD2DE9F04106460C4627
:405000000D691F4601F1140E0023DEF80000013381B202FB0171000C0F0C02FB007089B201EB00419D424FEA10474EF8041BECDCD7B1A3689D4212DB616830460131FFF754
:405040008FFF8046226904F10C01023292000C30FEF7F0FD21463046FFF7B7FF444604EB850301355F6125612046BDE8F081030C1B0413B90004102300E0002310F07F4FE7
:4050800004BF0002083310F0704F04BF0001043310F0404F04BF80000233002803DB420003D5581C70471846704720207047036813F007020BD0D90722D49A074BBF5B08A2
:4050C0009B08036003604CBF01200220704799B209B91B0C102213F0FF0F04BF1B0A0832190704BF1B090432990704BF9B080232D90702D45B0805D00132036010467047A1
:40510000002070472020704710B50C460121FFF727FF01224461026110BD2DE9F74F14460A69236988469A42BEBF0B46A0461C46D8F81070D4F81090D8F80830D8F8041037
:4051400007EB09069E42C8BF0131FFF709FF00F114052B4605EB860C0022634502D243F8042BFAE704F1140208F1140102EB890301EB87070093009B0192934257D9B2F835
:4051800000B0BBF1000F23D08946AE464FF0000859F8044BBEF800A0A3B20BFB03A34FEA144ADEF8004043444FEA14480BFB0A84F24604EB13449BB243EA04434F454FEA27
:4051C00014484AF8043B01D9D646E1E7CEF80480019B0432B3F802A0BAF1000F21D02C4689462B684FF00008B9F800E0B4F802B09BB20AFB0EBEA346F04443EA08434BF800
:40520000043B59F8043BB4F804E01B0C0AFB03E34F4503EB18434FEA134801D95C46E3E763600435A7E75CF8043D13B9013E002EF9DC066103B0BDE8F08F00002DE9F8438A
:40524000154612F0030206460F4607D0214C013A002354F82220FFF7CFFE0746AD1036D0746A3CB91020FFF773FE7062446084600460C460D6F82480D8F808404CB940F21B
:4052800071213046FFF740FF04460023C8F8080003604FF00008EB070AD5394622463046FFF73BFF814639463046FFF78EFE4F466D100CD0206808B10446ECE7224621461B
:4052C0003046FFF72AFF2060C0F80080F4E73846BDE8F883D06000002DE9F0470C460746914626694FEA621A56444968A368751CAB4202DA01315B00FAE73846FFF730FEF1
:40530000002380461A4600F11401534503DA41F823200133F9E72AEAEA73206901EB830319F01F0904F1140101EB800E14D0C9F1200C002208689A4600FA09F0024343F849
:40534000042B51F8042B8E4522FA0CF2F2D8CAF8042042B1B51C06E0043B51F8042B8E4543F8042FF9D8013D3846C8F810502146FFF72BFE4046BDE8F08703690A6910B5CE
:405380009B1A11D192001430143183180A4453F8044D52F8041D8C4202D007D3012010BD9842F4D3002010BD184610BD4FF0FF3010BD2DE9F8430C460746114620461546E7
:4053C000FFF7DBFF061E08D131463846FFF7C8FD012303614661BDE8F883BCBF23462C4638466168BABF1D4601260026FFF7B8FD2B69C660266905F1140904F1140101EB1E
:40540000860709EB830800F114054FF0000C51F8042B59F8044B93B29C44A3B2240CC3EB0C03C4EB124202EB23429BB24FEA224CC84543EA02428E4645F8042BE7D8BE45C3
:405440000ED25EF8041B8AB26244131403EB114392B242EA03424FEA234C45F8042BEEE755F8043D0BB9013EFAE70661BDE8F8832DE9F3411C4601219046089E099DFFF70F
:405480006FFDC4F31302C4F30A5407460CB142F480120192B8F1000F19D002A840F8088DFFF705FE009B48B1019AC0F1200102FA01F10B43C2407B61019200E07B61019B23
:4054C000002B14BF02210121BB61396107E001A8FFF7EDFD019B01217B613961203034B1A4F2334404443460C0F1350009E0A0F2324007EB810330601869FFF7B8FDC0EB41
:4055000041102860384602B0BDE8F08138B502FB01F4214600F008F8054618B122460021FEF793FB284638BD70B5CD1C25F0030508350C2D38BF0C25002D064601DBA9428A
:4055400002D90C23336046E000F05CF8234B1C681A462146A1B10B685B1B0ED40B2B03D90B60CC18CD501EE08C420BBF63684B681360636018BF0C4615E00C464968E9E795
:40558000174C23681BB9304600F02CF820602946304600F027F8431C18D0C41C24F00304A0420DD12560304600F02DF804F10B00231D20F00700C31A0ED05A42E25070BD0C
:4055C000211A304600F00EF80130EBD10C233360304600F018F8002070BD00BFE881FF1FE481FF1F38B5064C0023054608462360FBF7FEFC431C02D1236803B12B6038BD6E
:40560000C884FF1F7047704781F0004102E000BF83F0004330B54FEA41044FEA430594EA050F08BF90EA020F1FBF54EA000C55EA020C7FEA645C7FEA655C00F0E2804FEA6E
:405640005454D4EB5555B8BF6D420CDD2C4480EA020281EA030382EA000083EA010180EA020281EA0303362D88BF30BD11F0004F4FEA01314FF4801C4CEA113102D0404204
:4056800061EB410113F0004F4FEA03334CEA133302D0524263EB430394EA050F00F0A780A4F10104D5F1200E0DDB02FA0EFC22FA05F2801841F1000103FA0EF2801843FA50
:4056C00005F359410EE0A5F120050EF1200E012A03FA0EFC28BF4CF0020C43FA05F3C01851EBE37101F0004507D54FF0000EDCF1000C7EEB00006EEB0101B1F5801F1BD313
:40570000B1F5001F0CD349085FEA30004FEA3C0C04F101044FEA445212F5800F80F09A80BCF1004F08BF5FEA500C50F1000041EB045141EA050130BD5FEA4C0C404141EBFB
:40574000010111F4801FA4F10104E9D191F0000F04BF01460020B1FA81F308BF2033A3F10B03B3F120020CDA0C3208DD02F1140CC2F10C0201FA0CF021FA02F10CE002F113
:405780001402D8BFC2F1200C01FA02F120FA0CFCDCBF41EA0C019040E41AA2BF01EB0451294330BD6FEA04041F3C1CDA0C340EDC04F11404C4F1200220FA04F001FA02F3F3
:4057C00040EA030021FA04F345EA030130BDC4F10C04C4F1200220FA02F001FA04F340EA0300294630BD21FA04F0294630BD94F0000F83F4801306BF81F480110134013DE1
:405800004EE77FEA645C18BF7FEA655C29D094EA050F08BF90EA020F05D054EA000C04BF1946104630BD91EA030F1EBF0021002030BD5FEA545C05D14000494128BF41F05F
:40584000004130BD14F580043CBF01F5801130BD01F0004545F0FE4141F470014FF0000030BD7FEA645C1ABF194610467FEA655C1CBF0B46024650EA013406BF52EA033585
:4058800091EA030F41F4002130BD00BF90F0000F04BF0021704730B54FF4806404F132044FF000054FF0000150E700BF90F0000F04BF0021704730B54FF4806404F132041D
:4058C00010F0004548BF40424FF000013EE700BF42004FEAE2014FEA31014FEA02701FBF12F07F4393F07F4F81F06051704792F0000F14BF93F07F4F704730B54FF460740E
:4059000001F0004521F0004120E700BF50EA010208BF704730B54FF000050AE050EA010208BF704730B511F0004502D5404261EB41014FF4806404F132045FEA915C3FF4C3
:40594000DCAE4FF003025FEADC0C18BF03325FEADC0C18BF033202EBDC02C2F1200300FA03FC20FA02F001FA03FE40EA0E0021FA02F11444C1E600BF70B54FF0FF0C4CF48A
:40598000E06C1CEA11541DBF1CEA135594EA0C0F95EA0C0F00F0DEF82C4481EA030621EA4C5123EA4C5350EA013518BF52EA033541F4801143F4801338D0A0FB02CE4FF0B8
:4059C0000005E1FB02E506F00042E0FB03E54FF00006E1FB03569CF0000F18BF4EF0010EA4F1FF04B6F5007F64F5407404D25FEA4E0E6D4146EB060642EAC62141EA555192
:405A00004FEAC52040EA5E504FEACE2EB4F1FD0C88BFBCF5E06F1ED8BEF1004F08BF5FEA500E50F1000041EB045170BD06F0004646EA010140EA020081EA0301B4EB5C04ED
:405A4000C2BFD4EB0C0541EA045170BD41F480114FF0000E013C00F3AB8014F1360FDEBF002001F0004170BDC4F10004203C35DA0C341BDC04F11404C4F1200500FA05F320
:405A800020FA04F001FA05F240EA020001F0004221F0004110EBD37021FA04F642EB06015EEA430E08BF20EAD37070BDC4F10C04C4F1200500FA04F320FA05F001FA04F244
:405AC00040EA020001F0004110EBD37041F100015EEA430E08BF20EAD37070BDC4F1200500FA05F24EEA020E20FA04F301FA05F243EA020321FA04F001F0004121FA04F263
:405B000020EA020000EBD3705EEA430E08BF20EAD37070BD94F0000F0FD101F00046400041EB010111F4801F08BF013CF7D041EA060195F0000F18BF704703F000465200EB
:405B400043EB030313F4801F08BF013DF7D043EA0603704794EA0C0F0CEA135518BF95EA0C0F0CD050EA410618BF52EA4306D1D181EA030101F000414FF0000070BD50EA88
:405B8000410606BF1046194652EA430619D094EA0C0F02D150EA013613D195EA0C0F05D152EA03361CBF104619460AD181EA030101F0004141F0FE4141F470014FF00000AF
:405BC00070BD41F0FE4141F4780170BD70B54FF0FF0C4CF4E06C1CEA11541DBF1CEA135594EA0C0F95EA0C0F00F0A7F8A4EB050481EA030E52EA03354FEA013100F08880D0
:405C00004FEA03334FF0805545EA131343EA12634FEA022245EA111545EA10654FEA00260EF000419D4208BF964244F1FD0404F5407402D25B084FEA3202B61A65EB0305C9
:405C40005B084FEA32024FF480104FF4002CB6EB020E75EB030E22BFB61A754640EA0C005B084FEA3202B6EB020E75EB030E22BFB61A754640EA5C005B084FEA3202B6EBF9
:405C8000020E75EB030E22BFB61A754640EA9C005B084FEA3202B6EB020E75EB030E22BFB61A754640EADC0055EA060E18D04FEA051545EA16754FEA06164FEAC30343EA04
:405CC00052734FEAC2025FEA1C1CC0D111F4801F0BD141EA00014FF000004FF0004CB6E711F4801F04BF01430020B4F1FD0C88BFBCF5E06F3FF6AFAEB5EB030C04BFB6EB58
:405D0000020C5FEA500C50F1000041EB045170BD0EF0004E4EEA113114EB5C04C2BFD4EB0C0541EA045170BD41F480114FF0000E013C90E645EA060E8DE60CEA135594EA46
:405D40000C0F08BF95EA0C0F3FF43BAF94EA0C0F0AD150EA01347FF434AF95EA0C0F7FF425AF104619462CE795EA0C0F06D152EA03353FF4FDAE1046194622E750EA4106A6
:405D800018BF52EA43067FF4C5AE50EA41047FF40DAF52EA43057FF4EBAE12E74FF0FF3C06E000BF4FF0010C02E000BF4FF0010C4DF804CD4FEA410C7FEA6C5C4FEA430CBD
:405DC00018BF7FEA6C5C1BD001B050EA410C0CBF52EA430C91EA030F02BF90EA020F0020704710F1000F91EA030F58BF994208BF90422CBFD8176FEAE37040F001007047DC
:405E00004FEA410C7FEA6C5C02D150EA013C07D14FEA430C7FEA6C5CD6D152EA033CD3D05DF8040B704700BF8446104662468C461946634600E000BF01B5FFF7B7FF002866
:405E400048BF10F1000F01BD4DF808EDFFF7F4FF0CBF012000205DF808FB00BF4DF808EDFFF7EAFF34BF012000205DF808FB00BF4DF808EDFFF7E0FF94BF012000205DF8AB
:405E800008FB00BF4DF808EDFFF7CEFF94BF012000205DF808FB00BF4DF808EDFFF7C4FF34BF012000205DF808FB00BF4FEA410C7FEA6C5C02D150EA013C0AD14FEA430CD6
:405EC0007FEA6C5C02D152EA033C02D14FF0000070474FF0010070474FEA410212F5001215D211D56FF47873B3EB625212D94FEAC12343F0004343EA505311F0004F23FAA6
:405F000002F018BF404270474FF00000704750EA013005D111F0004008BF6FF0004070474FF00000704700BF00000000000000001B5B324A1B5B480041206D696E696D6189
:405F40006C20756E69742074657374696E67206672616D65776F726B20666F7220430D0A0D0A0000004F00402400605100401000000001408002000301408007000B014043
:405F8000000500140140800200170140000500400140000A004C0140000210500140100060520040D0130048060000510140D8130048080080020140E01300488000800AE5
:405FC000014060140048800080160140E01400488000005001406015004810004300494E4600696E66004E414E006E616E003000496E66696E697479004E614E00504F5353
:406000004958002E00000000000000000000F03F000000000000244000000000000059400000000000408F40000000000088C34000000000006AF8400000000080842E41B6
:4060400000000000D01263410000000084D797410000000065CDCD41000000205FA00242000000E876483742000000A2941A6D42000040E59C30A2420000901EC4BCD6428B
:4060800000003426F56B0C430080E03779C3414300A0D8855734764300C84E676DC1AB43003D9160E458E143408CB5781DAF154450EFE2D6E41A4B4492D54D06CFF0804439
:4060C000F64AE1C7022DB544B49DD9794378EA4405000000190000007D000000000000000080E03779C34143176E05B5B5B89346F5F93FE9034F384D321D30F94877825A8D
:406100003CBF737FDD4F1575F8B500BFF8BC08BC9E4670474D000000D9100000F8B500BFF8BC08BC9E4670472900000040610000C880FF1FB800000050030000000000004D
:4061400000000000D084FF1F0087930360EA00003C000000000030750000000000000000000000000000000000000000000000000000000000000000DC5F0000000000002A
:406180000000000000000000000000000000000000000000000000000000000000000000000000000000000000000000000000000000000000000000E080FF1F03600000FE
:4061C000046000000460000004600000046000000460000004600000046000000460000004600000FFFFFFFFFFFFFFFFFFFFFFFFFFFF000000000000000000000000000029
:40620000000000000000000000000000000000000000000000000000000000000000000000000000000000000000000000000000000000000000000000000000000000005E
:40624000000000000000000000000000000000000000000000000000000000000000000000000000000000000000000000000000000000000000000000000000000000001E
:4062800000000000000000000000000000000000000000000000000000000000000000000000000000000000000000000000000000000000000000000000000000000000DE
:4062C000000000000000000000000000000000000000000000000000000000000000000000000000000000000000000000000000000000000000000000000000000000009E
:020000040003F7
:0200000480007A
:40000000064F00400F5200400C640040066500404B00014043010140380201406A0301405A04014063050140750601406F0701406D08014065090140230A01405F0B0140BC
:40004000710C01405B0D0140710E0140440F01405C14014063150140371601406A1701406C18014058190140571A01405D1B014010400140234101403042014018430140A4
:400080000845014003460140084701401448014026490140104C0140164D01400550014001100AC60D10164B191022C60020089009500C041142140D1823190920042104C9
:4000C000280A2908788079807C3080678247830787678867890F8A388B678C6F8D0F8E6F8F7276018478850F870D890D8B0F02B3030B040C0510080109030CFF0D700F0F9A
:40010000104F117F129014031501184C19301AA31CF31E0C2008212024422502280429782B072D4F2E402F30308C31383303347C3540360F370439803AA23F10528054070F
:40014000580459045B045C225D105F01800283088601920699019B069D049F01A008A108AE08B004B102B201B301B402B504B608B708BE50BF54D608D804D904DB04DC112F
:40018000DD90DF0100010202031405090A090B600D0110601180128814011680188019601A091C021D091E041F0120082180220123102604278A284029602A082F4032027C
:4001C00033143510378038A73B603D01450358205A845D945E0261246410651066816701710280048288840286018701880489808E028F02C03FC21FC49FCA8FCC37CE8F10
:40020000D6FED8F6E214E482E60C019F0608090A0B510D80100A140419011A041B26219F2514260B2749300131603204330734023518360837803E543F0140364105420164
:400240004404460C47E0482449FF4AFF4BFF4C624DA04EF04F41500C54415604580459045A045B045C205D025F016640670269106A306B106D106E106F12012003A00440F0
:40028000054808080A060E9812181508180419A01A021B081D401E801F14220A24222512271628082B242C202E0A300832013380371038043A103D203F82410143084402DD
:4002C00045024620484049044B404E024F2051295280568057025C405D085E20602061186480672069546B407810792182808312840986258A108D019201931394229503CC
:400300009680978098129A039CA19D049E089F04A001A181A341A420A560A602A880AB40AD08AF08B11CB605B710C02EC277C426CAC6CC2BCEB6D0D3D238D670D8C4DE05AE
:40034000E001E202E410E640E8B0EA44EE080005020A043705A10704086A09A10A050B080D100E800FA1171E186C1A031B801DA11E801F0223412403260C285F311F320F89
:400380003340347035203680378038203E403F51400241064220440445BE46DF47C0482F49FF4AFF4BFF4C224EF04F0C508C5110580459045A245B045C815D085F11684016
:4003C00069016AC06B0183038B049328952097089D019E08A00CA128A202A90CAB10AE01B001B130B208B301B404B50CB602B702BE14BF05D608D804D904DB04DC11DD900D
:40040000DF01012003A209800A040C8010041210150116821B641C201D121F40204021202204230225182641270428042A012B042C082E02303032043340364037093954D5
:400440003D203F0140404120488049104A105020514159815A405B145CA05F04626A64086688780179207A408108820183108560881189038B018C208D148F02917492049F
:4004800093119509969097C099209A119B409C019D199E08A040A181A280A30AA540A614A7A4AB01B1A0B304B704C00FC283C496CAA1CCDECEAED005D204D67FD87FDE04E3
:4004C000E048E202E690EA040380092E0B5111101368194C1A041B301D191E011F62210425802C023002320433803401350737783BA03E013F04403641044250440245CE00
:4005000046F047BD483B49FF4AFF4BFF4C224EF04F08500454095604580459045A045B045C015F0162C0644065016610671168C069016B116C406D016E406F01800C832053
:4005400084048702892C8C0C8F089003940295089B089F10A32CA403A701A933B004B108B201B304B408B503B602B730BE41BF01C014C103C524C6C5C70EC83FC9FFCAFF52
:40058000CBFFCDA0CF01D018D280D407D804D904DA04DB04DC11DD11DF01E040E280E440E540E680E840EA50EBA8EC40ED20EE50EFA8008402800A200B800E080F021020A8
:4005C0001303148015801640180419801AA01E101F3221802204234C240825042610270228242A022D012F2031803224344036103702380239103A803B043C023E203F0246
:40060000410143884448462048A04C064D05512152045340561959845B105D045E815F106120620465026702728080808320841285088601871089918B108C808E048F18E7
:400640009180950896D0974098189D099E409F08A041A101A280A308A408A504A62EAA0AAB40AC80AD80AF80B33CB610C00DC2CCC484CAC7CCBECEAFD0EBD230D6FED89625
:40068000E001E220E401E608E804EA20EC01EE1C0008020403040406061908020A010C020E010F08100212011302150818011A021C061E09200622292301300C31043220E3
:4006C000330134033508361037023A2240544106454C4652470E483F49FF4AFF4BFF4DA04F01501852805407580459045A045B045C115D115F016040628064406540668088
:4007000068406A506BA86C406D206E506FA88001820684028560860187088F019011922293029411962A970498019A029C209D609E109F10A140A308A558A720A811A938FD
:40074000AA22AC01AE02AF78B008B104B203B302B404B501B630B778BA88D40FD604D804D904DB04DC11DD10DF01010A05550A250B400D020E0A100112081702190A1A05F2
:400780001B881C821D451E0822582340242025022610270228182B812F4030013248358036053740382039103A043B403C023D8045014C444E024F04550156AA58885A02FC
:4007C0005B105D045E405F20628163026608670476408020844089088A808B208C048E02905091249242938094A89540968898929A049B199C049D809E20A150A282A4E034
:40080000A50CA614A786A920AA04AB40AC10AE05B241B314C0FCC2DFC413CA8FCCCBCE9AD080D230D67FD861E011E2C0E401E880EC80EE20003002C905A10752089E0A60C5
:400840000B070C730D7710CF123019F71CFD1D311E021FC220942154226023A02A0F2B082DC02F3431F0330F34FF3E105418580459045B045C105D205F0100600204038006
:4008800004800504064008010A820E120F20128013101501162019201D041E421F1022012310251026022721280129202B802CA42F02301032803614374138403A043B10C9
:4008C0003C023DA845094C044D014F045501564857115A0D5C045E906160660867047401780879048728880289408B018C14904091209380942095409604971898889940EC
:400900009B109C119D80A010A280A440A784AA01B008B104B240B302B502C0BBC289C43ACAFDCCFCCEFED0C0D220D671D86CE030E280E460E8E0EC800542070C0B010D67FB
:400940000F1010011180158019061A081B782002215E2321240225652605270A29BB2A083004320233783401350736083780380839803E503F404065410449FF4AFF4BFF02
:400980004DA04F015018540F580459045A045B045C115D115F056040628064406540668068406A806C406D206E8083038806890C8C038D088F04900691029408A405A70C8F
:4009C000AA18AE08B007B101B210B304B408B508B702B802BE10BF54C065C104C50EC6C4C723C83DC9FFCAFFCBFFCDAFCE07CF01D018D280D40FD604D804D904DA04DB04B1
:400A0000DC11DD11DF01E040E280E440E540E680E840EA80EC40ED20EE80006008010A100C200E8010121120150A1608184019111A101B101D441E88221523012402251828
:400A400029042C042D062F043201360A3720382039023A403DA03E044302464049184B404C014F605105521A5340584459025A205DA05E085F01620165086610700279014F
:400A80007B807F048020844085488604884089218B2091209541971098809A089B109C119D01A010A280A704AB02AC08B131B484B620C003C25CC477CAE2CCE1CE7DD08123
:400AC000D23CD6FFD861DE20E410E620EC20EE400102033C080109400B800C040D400F80130115251712191E1B211D861E0C1F48213B220329402B802D272E042F083001FC
:400B000031073202333C3404360837C03B803E114023410649FF4AFF4BFF4DA04F0150185280540F580459045A045B045C115D115F056040628064406540668068406A800C
:400B40006C406D206E80800189088B048F0390089D02A003A30CA90CAC03AE0CB004B101B201B308B408B504B602B702B888BE14BF54C063C102C54CC602C73EC837C9FF0A
:400B8000CAFFCBFFCDAFCE07CF01D018D602D712D804D904DA04DB04DC11DD21DF01E040E280E440E540E680E840EA80EC40ED20EE800180030805010A020E801082150258
:400BC0001641180419801A481B081D081E841F402020228924082752284929012B042F4830103289374039613D203F904004410845184B104C804E044F04564557405920D4
:400C00005A445B025D04620463046E286F02700276227708784082028308861889048E04C013C211C499CAADCC1FCE3DD066D224D64FD806DE08E020E240020104080504B8
:400C4000062207180B200D0E0E40120A150116101A801F4121122304240A28F329142A042B0A2F203003311E32303340340C350136C0372039023E103F5054205604580459
:400C800059045B045C015F01805881EC846885EC8617884889118B268C488D088E108F13901E92209410950196489706988099E89B049D109E019F68A010A1ECA404A64B42
:400CC000A780A848A917AA10AB40AC58AD6CAF80B01CB280B307B474B580B603B778BA20BB88BE04BF10D602D720D804D904DB04DF01018A04180741080109100B100D20E1
:400D00000EA11028150116221710180219AB1C621D101E8122442344241026842704284029102A402D102E482F8030803204369438083B603C403E26400241404420460410
:400D400047144C044D105802610863866510662067016E646FD17440760281808419852089288B408C208D029008918193319402968098419A489C209D099E249F41A08823
:400D8000A110A301A440A654A740A994AC40AD30AF40B280B310B510B620C0FDC2FEC4F6CAFDCC7ACEFED601D81FE00EE220E604E820EA50EC80EE0A008403020456060944
:400DC00008841007123814801604170418041C0120042280240A26102702288429042B012C60300231023280330434083501367F38803E154042410649FF4AFF4BFF4F01AC
:400E0000501854405604580459045A045B045C105D015F016040624064406540668068806A806C806E80004001200310040806040740088009020A120EA9100C138815207C
:400E40001621170118401A501BB81C281E011F01200222AD23202798288029082B082D202F1032A4344036403708382239403B043D0A3E0842804320452146C048014906B9
:400E80004A024B204F205120531059065A8064206580661067806C586D407102751077027B138040849189018A038C408F4290089183930594029640970298109A199CC43C
:400EC0009D019E229F20A101A302A41CA62AA780A906B024B104B240C077C2FDC4F7CA67CC4ECE8FD0A5D224D60BD8F0DE02E21AE406E6C0E880EA04EE1103950583060158
